:100000000204E41208DB787BEFF2220206E8438E5A
:10001000805389F0758ACD758CD4C28DD2A9D28CCB
:10002000222222020814BB010CE58229F582E58315
:100030003AF583E0225006E92582F8E622BBFE0667
:10004000E92582F8E222E58229F582E5833AF58303
:10005000E49322BC000BBE0029EF8DF084FFADF0CD
:1000600022E4CCF875F008EF2FFFEE33FEEC33FC02
:10007000EE9DEC984005FCEE9DFE0FD5F0E9E4CE38
:10008000FD22EDF8F5F0EE8420D21CFEADF075F007
:1000900008EF2FFFED33FD4007985006D5F0F22210
:1000A000C398FD0FD5F0EA22E88FF0A4CC8BF0A422
:1000B0002CFCE98EF0A42CFC8AF0EDA42CFCEA8E3A
:1000C000F0A4CDA8F08BF0A42DCC3825F0FDE98F5D
:1000D000F0A42CCD35F0FCEB8EF0A4FEA9F0EB8F54
:1000E000F0A4CFC5F02ECD39FEE43CFCEAA42DCE21
:1000F00035F0FDE43CFC2275F008758200EF2FFF1F
:10010000EE33FECD33CDCC33CCC58233C5829BEDEF
:100110009AEC99E58298400CF582EE9BFEED9AFDF3
:10012000EC99FC0FD5F0D6E4CEFBE4CDFAE4CCF9A3
:10013000A88222B800C1B90059BA002DEC8BF08416
:10014000CFCECDFCE5F0CBF97818EF2FFFEE33FEE4
:10015000ED33FDEC33FCEB33FB10D703994004EB9C
:1001600099FB0FD8E5E4F9FA227818EF2FFFEE3368
:10017000FEED33FDEC33FCC933C910D7059BE99A7A
:100180004007EC9BFCE99AF90FD8E0E4C9FAE4CC0B
:10019000FB2275F010EF2FFFEE33FEED33FDCC3375
:1001A000CCC833C810D7079BEC9AE899400AED9B5E
:1001B000FDEC9AFCE899F80FD5F0DAE4CDFBE4CC3D
:1001C000FAE4C8F922E8600FEFC333FFEE33FEED27
:1001D00033FDEC33FCD8F122ECF208EDF208EEF23C
:1001E00008EFF222120A197F7112095B120932EF2D
:1001F0006006120A5D7F01227F011207DA7843EF61
:10020000F27F011207DA7844EFF27F011207DA7801
:1002100045EFF27F011207DA7846EFF27F0112070D
:10022000DA7847EFF27F011207DA7848EFF2E4FF5D
:100230001207DA7849EFF2120A5D7843E2549864C3
:100240001860037F01227844E2FFE4FCFDFE780C95
:100250001201C5784A1201D8784AE2FB08E2F9088F
:10026000E2FA08E2CBF8C0007845E2FFE4FCFDFECC
:1002700078041201C5D000EB4FFFEA4EFEE94DFDB8
:10028000E84CFC784A1201D8784AE2FB08E2F90807
:10029000E2FA08E2CBF8C0007846E2C4540FFFD07F
:1002A00000EB4FFFEAFEE9FDE8FC784A1201D8783E
:1002B00046E2540FFFE4FCFDFE78101201C5784EB3
:1002C0001201D8784EE2FB08E2F908E2FA08E2CB24
:1002D000F8C0007847E2FFE4FCFDFE78081201C593
:1002E000D000EB4FFFEA4EFEE94DFDE84CFC784EA6
:1002F0001201D8784EE2FB08E2F908E2FA08E2CBF4
:10030000F8C0007848E2FFD000EB4FFFEAFEE9FDBD
:10031000E8FC784E1201D8E47FE87E03FDFC784AC1
:10032000E2FB08E2F908E2FA08E2CBF81200A8E4DE
:10033000FBFA7910F81201337877EEF208EFF2E465
:100340007FD07E07FDFC784EE2FB08E2F908E2FA76
:1003500008E2CBF81200A8E4FBFA7910F812013396
:10036000EF240C7876F2EE34FE18F27F002278014A
:10037000E2700302044D7842E2640860030204461E
:10038000787BE2FF7802E26F60030204467BFE7A2C
:100390000079027D061205F3AD07AC067809E2FE8E
:1003A00018E2FBEB6D7002EC6E600302044678030A
:1003B000E224FA605424036003020446787BE27866
:1003C00052F2087403F2087405F208F27875E2FC40
:1003D00008E2FDECFFEF7856F2ED08F27877E2FCE8
:1003E00008E2FDEC7858F2ED08F27BFE7A007952D3
:1003F0007D081205F3EF785AF2EE08F27BFE7A00E0
:1004000079527D0A120907803D7804E2FE08E2FD78
:10041000EDFF785CEEF208EFF2AC06AD077806E28D
:10042000FE08E2FBEE785EF2EB08F2ED64044C703D
:100430001518E2FE08E2FF64014E7004C2B48006A3
:10044000EF4E7002D2B4E47801F27842F22278439F
:10045000EEF208EFF2C3EE64809480503018E2FEB2
:1004600008E2FFC3E49FFFE49EFAAB07D3EB94637B
:10047000EA940040047A007B637871740AF27C008D
:10048000FDAF03AE021200537872EF80467843E26C
:10049000FE08E2AA06FBD394E7EA940340047A0339
:1004A0007BE7C3EB9464EA9400400D7C007D64AF6D
:1004B00003AE0212005380027F0B7871EFF27C00D2
:1004C0007D0AAF03AE021200537C007D0A12005376
:1004D0007872EDF27C007D0AAF03AE021200537811
:1004E00073EDF222787FE4F6D8FD75810902052BC1
:1004F000020570E493A3F8E493A34003F68001F2AD
:1005000008DFF48029E493A3F85407240CC8C3330C
:10051000C4540F4420C8834004F456800146F6DFDB
:10052000E4800B0102040810204080900670E47EF5
:10053000019360BCA3FF543F30E509541FFEE493D0
:10054000A360010ECF54C025E060A840B8E493A397
:10055000FAE493A3F8E493A3C8C582C8CAC583CAC2
:10056000F0A3C8C582C8CAC583CADFE9DEE780BE7A
:100570001208AC1209A9120A01120A407F647E0017
:10058000120A3012098312000ED2AF7FC87E001209
:100590000A30C3786EE2940A18E294004007E4F24D
:1005A00008F2120021C37870E2943218E2940040FD
:1005B00007E4F208F2120022C37868E2946418E2B9
:1005C00094004007E4F208F2120003C3786AE29450
:1005D000F418E294014007E4F208F2120A80C378AA
:1005E0006CE294E818E2940340A8E4F208F21208DE
:1005F0007C809F7860EBF208EAF208E9F208EDF2FD
:1006000074FF08F208F2E408F27863E2FF7866E229
:10061000FEC39F50537860E2FB08E2FA08E2F98ECD
:1006200082758300120026FF7864E2F208E26FF21E
:10063000E4FD7864E2FE08E2FF30E013EEC313FE4F
:10064000EF13FFEE64A018F2EF640108F2800D785A
:1006500064E2C3137964F308E21309F30DEDB408FF
:10066000D17866E204F280A17864E2FE08E2FF221B
:10067000817B0083710B0000817400817900817A95
:1006800000826D0000826F000082670000826900B6
:1006900000826B0000A0400200000000000000008B
:1006A000000000000000000000000000000000004A
:1006B000000000000000000000000000000000003A
:1006C000000000000000000000000000000000002A
:1006D0000000000000000000814200810100810054
:1006E0000084750000000000C0E0C0F0C083C0823C
:1006F000C0D075D000C000C001C002C003C004C09B
:1007000005C006C00712079D120A7A786EE224011E
:10071000F218E23400F27870E22401F218E23400B8
:10072000F27868E22401F218E23400F2786AE224F6
:1007300001F218E23400F2786CE22401F218E2349B
:1007400000F2D007D006D005D004D003D002D001EB
:10075000D000D0D0D082D083D0F0D0E032EFC33000
:10076000E001D392A4EFC330E101D392A7EFC330ED
:10077000E201D392B6EFC330E301D392A0EFC330CE
:10078000E401D392A1EFC330E501D392A5EFC330CA
:10079000E601D392B5EDC36001D392B722120A737A
:1007A0007874E2FE2471F8E2900A8A93FFEE7D00ED
:1007B000B401027D0112075D7874E2FF7004C2A3E8
:1007C000800AEFB40104C2A68002C2817874E204F8
:1007D000F2E2C394034002E4F222AD07E4FCD2B398
:1007E000FBC2B21209CAEC25E0FC30B3034401FCA1
:1007F0000BEBB408ECC2B27F021209D3ED6004C265
:10080000B38002D2B31209CAC2B2D2B37F021209B4
:10081000D3AF0422C0E0C0D075D000C000C0073004
:10082000981AC2987842E2C39440500BE2FF04F257
:1008300074022FF8E599F278007405F2309902C23B
:1008400099D007D000D0D0D0E032120A197F7012B0
:10085000095B120932EF6006120A5D7F01227FAC4C
:1008600012095B1209327F3312095B120932E4FF6D
:1008700012095B120932120A5D7F00221201E4782C
:100880007AE204F2E2C39403400EE4F218E27F003D
:1008900070027F017879EFF27879E26004787780EE
:1008A000027875E2FE08E2FF12044E225395FB43E4
:1008B0009604D2A253B1EF43B210D2B443930C5377
:1008C00094F343913C5392C343BA8090FE10E044AA
:1008D0000CF0A3E0443CF053BA7F22E4FF209503E0
:1008E0007420FF209404EF4410FF209304EF440889
:1008F000FF209204EF4404FF208304EF4402FF2012
:100900008204EF4401FF227860EBF208EAF208E982
:10091000F2E4FEEEC39D50197860E2FB08E2FA08AB
:10092000E2F98E82758300120026FF120A6B0E8098
:10093000E2227DC87C00D2B31209CA30B313ED1D88
:1009400070011C144C70F4C2B27F021209D37F01F3
:1009500022C2B27F021209D37F0022AD07E4FCC29B
:10096000B27F021209D3ED30E704D2B38002C2B3E2
:100970001209CAED25E0FD0CECB408E3C2B27F0217
:100980000209D3120A197F7012095B1209327FBE65
:1009900012095B1209327F0812095B120932E4FF67
:1009A00012095B120932020A5D5393FD439402530C
:1009B00095B743964853954C4396B353B11F43B2F2
:1009C000E0120A73E4FDFF02075D7F021209D3D231
:1009D000B27F04AE071FEE600E00000000000000B2
:1009E000000000000080EC227800E26013E214F2C4
:1009F000E2700D7842E2D39400400578017401F270
:100A000022759850438E0475D7E075D6FE438E1537
:100A100053B1FC53B2FCD2AC22D2B2D2B37F021299
:100A200009D3C2B37F041209D3C2B27F020209D331
:100A3000EF1FAC0670011E4C6005120A4F80F122B8
:100A400053B1F353B2F3D2B2D2B37F040209D3004D
:100A500075080F75095AD509FDD508FA22C2B2C228
:100A6000B31209CAD2B37F040209D38F993099FD1A
:100A7000C29922D2A3D2A6D281221209E802036E21
:100A8000120A8602084A63A004223F065B4F666D85
:060A90007D077F6F4000AE
:00000001FF
