:0300000002004EAD
:100008000000E2FBEAF2802C0000E0FBEAF080242A
:10001800E6B50202EBF62200E2B50202EBF222009C
:10002800E0B50202EBF02230F6E0A88220F5D3EA30
:10003800C6F582228B822230F6E6A88220F5D98086
:01004800CFE8
:0300A7000200490B
:050049001200AA80FE78
:1000AA007E007F00C007C00612014912072B120505
:1000BA00261205FF120373120195D006D007C00756
:1000CA00C006120539120161AD82C00512053285DA
:1000DA00825E85835FD0058D821206B512053212C3
:1000EA0003881203EA900001120198D006D0078E05
:1000FA00048F050CBC00010D8C068D078E048F053C
:10010A00C3EC94F4ED940140B57E007F00C007C0B3
:10011A0006120195D006D0070200C875940075939F
:10012A000075920075910075960075950075B2007C
:10013A0075B100439402E5967596FF43B2F0221218
:10014A000125D282D283D292D293D294D295758249
:10015A0000120189D2A2227F002095027F202094DA
:10016A00034307102093034307082092034307041D
:10017A002083034307022082034307018F8222E57B
:10018A0082B40100B39200B392B422B2A222AE8228
:10019A00AF838E048F051EBEFF011FEC4D601D7CD0
:1001AA00007D007B0200DBFD0CBC00010D8C028D82
:1001BA0003C3EA94F4EB940140E980D622858216BF
:1001CA0085831785F0187BFF7CFF7A00C3EA9515B3
:1001DA005045EA2516F8E43517F9AF18888289835D
:1001EA008FF01209257F006203EF62047F00EB3073
:1001FA00E0158B05ECC313CD13CDFE630501630631
:10020A00A08D038E048007ECC313CB13CBFC0FBF66
:10021A00080040DA0A80B58B828C8322AD82AE83D5
:10022A00AFF0ED4E600674FD250840047582002289
:10023A00E50824FEF5158D828E838FF0C007C0066F
:10024A00C0051201C785820985830AD005D006D068
:10025A0007A9087A00E924FEF8EA34FFFCE82DF839
:10026A00EC3EFC8F0388828C838BF0120925AB0944
:10027A00B5031D19B9FF011AE92DFDEA3EFE8D826B
:10028A008E838FF0120925AF0AB507047F01800219
:10029A007F008F8222AD82AE83AFF0850B15C00737
:1002AA00C006C0051201C785820C85830DD005D012
:1002BA0006D007E50B2DF8E43EF98F02AC0C8882D4
:1002CA0089838AF0EC1208BDAC0B7B000CBC0001E0
:1002DA000BEC2DFDEB3EFEAC0D8D828E838FF0EC88
:1002EA000208BDD2A3D2A6D28122AF8274015F24B2
:1002FA00FF92A474025F24FF92A774045F24FF9202
:10030A00B674085F24FF92A074105F24FF92A17450
:10031A00205F24FF92A5530740EF24FF92B5C2B78E
:10032A0022E582FF7003C2A322BF0103C2A622C232
:10033A008122AE82AF838E048F051EBEFF011FECA1
:10034A004D6025C007C006120539120161AD82C091
:10035A000512053285825E85835FD0058D8212067D
:10036A00B5D006D0070080CE22750E00750F007535
:10037A0010007511001202ED7582000202F4AE82BD
:10038A00AF838E048F05C374E79C74039D50047E6B
:10039A00E77F037515647516008E828F83C007C0C8
:1003AA000612082FAC82D006D0078C0E75150A7576
:1003BA0016008E828F83C007C00612082F75150A91
:1003CA007516001208D8AC82D006D0078C0F7515A6
:1003DA000A7516008E828F831208D8AE828E10227A
:1003EA001202ED7582001202F490000A12033CE533
:1003FA0011240EF9E790094593F5821202F4900050
:10040A000A12033C85118212032B90025812033CF4
:10041A001202ED051174FD2511500375110022AF6A
:10042A0082E51224F65003751209C0071202ED750F
:10043A0082001202F4D007E51290094593F582C0B2
:10044A00071202F4D0078F8202032BD2A4D2A7D2BA
:10045A00B6D2A0D2A1D2A5D2B5D2B7C2A3C2A6C2E1
:10046A008122E582FF30E0047E0180027E00EF30C7
:10047A00E1047F0180027F00EE24FFE433FE24FFC3
:10048A0092A4EE24FF92A7EE24FF92B6EE24FF92E6
:10049A00A0EE24FF92A1EE24FF92A5EE24FF92B5CE
:1004AA00EE24FF92B7EF24FFE433FF24FF92A3EF79
:0A04BA0024FF92A6EF24FF92812296
:0A0945003F065B4F666D7D077F6F74
:1004C400AF82BFFE0475230122E52324FB402DE502
:1004D4002375F003A49004DD730205250204EC02E5
:1004E40004F20204F80204FC8F24752302228F25EF
:1004F400752303227523042275230522BFDC1FAF55
:10050400247E00AC257D00EC4206ED42078E048F6C
:1005140005C374E79C74039D40048E218F227523C8
:100524000022E4F521F522F523F524F52522852181
:10053400828522832290002675F040120771E5829D
:1005440060088526821204C480EB2290002775F08F
:100554004012079EE58260088527821204C480EB5E
:1005640022752801752903752A00752B00752C0046
:10057400752D01750B0690002875F04012029F75C9
:10058400130890002875F0401207BF7F007D007E9D
:100594000090003775F040C007C006C0051207710F
:1005A400E582D005D006D007600CEF2430F90FA700
:1005B40037BF070050120DBD00010E8D038E04C31A
:1005C400EB9430EC947540C9BF072F7401B5302A01
:1005D4007403B531257402B53220750807900030D4
:1005E40075F040120226E5826010AF337E00AC3411
:1005F4007D00EC4EF521ED4FF52222E4F550F55146
:10060400E58954F04401F589538E7F5388CF2253F2
:1006140088CF758CF1758A9A43881022AF828F54E3
:10062400755503755603755702AF538F58AF528FE4
:1006340059750B0690005475F04012029F7514080A
:1006440090005475F0400207F7AF827408B5500269
:10065400800122EFB5380280012275080890003825
:1006640075F040C007120226E582D007700122AE61
:1006740039BE0320E53A701CE53BFD6003BD01145F
:10068400E53C70107401B53D0B855C52855D538F5C
:1006940082020620BE0619E53A70157404B53B10B3
:1006A400E53C700CE53D60027401FF8F8202018914
:1006B40022AF8290006075F040C00712079EE58269
:1006C400D007601E74E82550400CAE500550EE244F
:1006D40038F8A6608003755101C007120613D007CD
:1006E40080D1E550601DE58830E5185388CFE55189
:1006F400700B855E5C855F5D8F8212064D755000C0
:100704007551002285821585831685F017F518909A
:10071400300075F02AE4120858AC82AD83C3E49C1F
:10072400F582E49DF58322902580E4F5F012070814
:10073400AE82AF8353A23F759850759A10E58954E1
:100744000F4420F589758DFD858D8B4388408FD6A8
:100754008ED774FE558E4454F58E5398FC539AFCF0
:1007640022858299E59830E1FB5398FD22AD82AE53
:1007740083AFF0E59820E004758200228D828E8399
:100784008FF0E5991208BD5398FE75820122858287
:100794009BE59A30E1FB539AFD22AD82AE83AFF024
:1007A400E59A20E00475820022539AFE8D828E839E
:1007B4008FF0E59B1208BD75820122AD82AE83AF36
:1007C400F07C00C3EC95135029EC2DF9E43EFA8F2C
:1007D4000389828A838BF0120925F582C007C0063B
:1007E400C005C004120765D004D005D006D0070C9C
:1007F40080D122AD82AE83AFF07C00C3EC9514505F
:1008040029EC2DF9E43EFA8F0389828A838BF01256
:100814000925F582C007C006C005C004120792D09E
:1008240004D005D006D0070C80D1227A10E4FBFC5A
:10083400E58225E0F582E58333F583EB33FBEC3386
:10084400FCEB9515F5F0EC95164006FCABF04382F5
:1008540001DADD22FB7A20E4FCFDFEFFE58225823D
:10086400F582E58333F583E5F033F5F0EB33FB40B4
:1008740017DAE98042E5822582F582E58333F58340
:10088400E5F033F5F0EB33FBEC33FCED33FDEE3305
:10089400FEEF33FFEC9515ED9516EE9517EF9518D1
:1008A4004013EC9515FCED9516FDEE9517FEEF95AE
:0908B40018FF438201DABEEB22B9
:06007D00E478FFF6D8FD57
:10005B007900E94400601B7A0090094F780175A084
:10006B0000E493F2A308B8000205A0D9F4DAF27504
:02007B00A0FFE4
:1008BD0020F71130F6138883A88220F509F6A88356
:1008CD007583002280FEF280F5F022E51545166055
:1008DD00467A01E51525E0F515E516334012F516B6
:1008ED00E5829515E583951640030A80E6C3E51666
:1008FD0013F516E51513F515C3E5829515F5F0E518
:10090D008395164005F58385F082C3E51613F5161C
:08091D00E51513F515DAE122DE
:100083007800E84400600A790175A000E4F309D818
:10009300FC7800E84400600C7900900001E4F0A3D0
:0400A300D8FCD9FAB2
:0D004E00758160120941E5826003020049DE
:1009250020F71430F6148883A88220F507E6A883FB
:1009350075830022E280F7E49322E022758200228B
:00000001FF
