:100FF600420087000042007E000044007A000000A4
:0F1006000044008B000000004400830000000045
:100DF200E4F593F594F591F592F595F596F5B1F53F
:100E0200B2F5C9F5CA4396045395FB43B21053B1E8
:100E1200E0D2A2D2B412164D7FE87E0312166A7F88
:100E2200E87E0312166A7DE87C037F011208F11244
:100E3200124312118D90004EEFF090007212051ABB
:100E420000A8C00090007612051A00002580E4FF79
:100E5200120C1190007212051A00A8C000900076C0
:100E620012051A00002580E4FF120CB8D2AF9000E0
:100E72007EE0FEA3E0FF7C037DE8120391AE04AFA7
:060E82000512112D80E8AD
:0F170100900021E07004A3E064017002C2B422E2
:100F140090008BE0F8A3E0F9A3E0FAA3E0FB9000D3
:100F24007AE0FCA3E0FDA3E0FEA3E0FF12004990F9
:100F340000A412050EE4FFFEFDFC9000A4E0F8A35B
:100F4400E0F9A3E0FAA3E0FB1201DE60025009E439
:100F5400900087F0A3F080199000A4E0FCA3E0FDCA
:100F6400A3E0FEA3E0FF1202A6900087EEF0A3EF39
:100F7400F0900087E0FFA3E090001DCFF0A3EFF016
:010F8400224A
:10000E0090001FE07004A3E06401700690001FF0E2
:03001E00A3F0222A
:1014AB00900037E06013900009E0FF7B017A007930
:1014BB004F12150CE4900037F01215E5900025E063
:1014CB0004F0E0C3940A748094804005E4F0121297
:0214DB00E72206
:03176F00B2A22201
:0100210022BC
:031772000217015A
:0C173D0012077990007EEEF0A3EFF0227E
:03000B00020AA93D
:100AA900C0E0C0F0C083C082C0D075D000C000C013
:100AB90001C002C003C004C005C006C0071214ABC0
:100AC90090008FE004F0900082E004F0700690003E
:100AD90081E004F0900080E004F090008AE004F0E6
:100AE9007006900089E004F090008FE0C3940A74C6
:100AF9008094804005120021E4F0900080E0C394C6
:100B090064748094804008121772900080E4F0C3E6
:100B1900900082E094F4900081E09401400712175C
:100B29006FE4F0A3F0C390008AE094D0900089E0CC
:100B39009407400A12173D900089E4F0A3F0D0070A
:100B4900D006D005D004D003D002D001D000D0D037
:090B5900D082D083D0F0D0E0324C
:07175A007F027E00021683EE
:0B162E00EFF0A3EBF0A3EAF0A3E9F05B
:10163900D2B312175AD2B212175AC2B312175AC2D8
:04164900B202175A78
:051477009000B6EFF04B
:10147C00A37408F09000B6E0FF30E704D2B380020A
:10148C00C2B3EF25E09000B6F012175AD2B2121781
:0E149C005AC2B212175A9000B7E014F070D680
:0114AA00221F
:1016F000D2B312175AD2B212175AA2B3C2B20217F9
:011700005A8E
:10153B009000B87408F0D2B3D2B212175A9000B917
:10154B00E0FF25E0F030B303E004F0C2B212175A0B
:0B155B009000B8E014F070E0A3E0FF87
:011566002262
:0F171000C2B312175AD2B212175AC2B202175AE4
:0F171F00D2B312175AD2B212175AC2B202175AC5
:0F172E00C2B312175AD2B212175AD2B302175AB5
:1013C40090009012162E7F5A1214771216F0900085
:1013D40090E0FF1214771216F0900091E0FBA3E066
:1013E400FAA3E0F9120327FF121477900092E47530
:1013F400F00112041C1216F0900094E014F070D95D
:0314040002172E9E
:1011EA0090009512162E7F5A1214771216F090005C
:1011FA0095E0FF1214771216F01216397F5B12145B
:10120A00771216F012153B900096E0FBA3E0FAA3C2
:10121A00E0F9EF12036D900097E475F00112041CD7
:10122A00900099E064016003121710900099E0148D
:09123A00F070D112171F02172EEB
:101440009000B0EFF0A3EDF0A3EBF012163990008E
:10145000B0E025E0FF1214771216F09000B1E0FF23
:101460001214771216F09000B2E0FF1214771216E1
:07147000F012172E7F00228D
:1012960090009AEFF0A3ED12162F90009AE025E049
:1012A600FF1214771216F090009BE0FF12147712CB
:1012B60016F012172E12163990009AE025E004FF58
:1012C6001214771216F012153B90009CE0FBA3E077
:1012D600FAA3E0F9EF12036D12171F12172E7F0003
:0112E60022E5
:081749007F0F7E5ADEFEDFFC7B
:011751002275
:0617610000007F01DFFE25
:01176700225F
:04166A00AD07AC0616
:10166E00E4FBFAC3EB9DEA9C500A1217490BBB0030
:04167E00010A80EFEE
:011682002245
:04168300AD07AC06FD
:10168700E4FBFAC3EB9DEA9C500A1217610BBB00FF
:04169700010A80EFD5
:01169B00222C
:080003008F99D2002000FD22BC
:1016CA00120327FF600C120003740129F9E43AFAA5
:0316DA0080EE227D
:100C1100900071EFF0C28E538EFE438E405389BF18
:100C21005389CFE47B04FAF9F8A3E0FCA3E0FDA328
:100C3100E0FEA3E0FF12046E900076E0F8A3E0F975
:100C4100A3E0FAA3E0FB12046EC3E49FFFE49EFE5F
:100C510074019DFDE49CFCE4FB7A01F9F812046E39
:100C61008F8DE47B04FAF9F8900072E0FCA3E0FDBB
:100C7100A3E0FEA3E0FF12046E900076E0F8A3E08B
:100C8100F9A3E0FAA3E0FB12046EC3E49FFF8F8B8C
:100C9100C2ABD28EE598543F4440F598D2BC43B7DD
:100CA10010D2ACD29C900071E042A2C200E490004C
:070CB100BBF09000BAF02235
:0D14DD009000B3EBF0A3EAF0A3E9F0AE0736
:1014EA00E4FDEDC39E501A9000B3E0FBA3E0FAA31B
:1014FA00E0F98D82758300120340FF1200030D800C
:01150A00E1FF
:01150B0022BD
:071768004393015394FE229C
:1000260043BA8090FEA8743FF053BA7F43DE2F4355
:0D003600BC80E4F5BDF5BE7F05FE02166A34
:101567009000C4EFF043BC407F017E0012166A90E2
:1015770000C4E042BC00000000E5BC542060FA5300
:0B158700BCDFAFBDEFFEADBEEDFF22EC
:1009D0009000BCECF0A3EDF0EF24FE604D0460034A
:1009E000020A9F438E049000BCE0FEA3E0FBAA062F
:1009F000E4F9F8FF7EC07DA8FC121380C3E49FFFDA
:100A0000E49EFE74019DFDE49CFCE4FB7A01F9F890
:100A10001213808FD69000BCE0FEA3E0FBAA06E490
:100A2000F9F8FF7EC07DA8FC8057538EFB9000BC78
:100A3000E0FEA3E0FBAA06E4F9F8FF7EC07DA8FC77
:100A4000121380E47B0CFAF9F8121380C3E49FFFC1
:100A5000E49EFE74019DFDE49CFCE4FB7A01F9F840
:100A60001213808FD69000BCE0FEA3E0FBAA06E440
:100A7000F9F8FF7EC07DA8FC121380E47B0CFAF924
:100A8000F8121380C3E49FFFE49EFE74019DFDE411
:100A90009CFCE4FB7A01F9F8121380AF038FD74373
:090AA000AF04538FFB438E1022BA
:10169C003F065B4F666D7D077F6F777C395E797196
:0816AC007638373E735C400004
:0A1015004300A90000004100A800FC
:101243004394025393FDC2814396405395BFC2A674
:101253004396085395F7C2A34396105395EFC2A440
:1012630043968053957FC2A743B24053B1BFC2B6E2
:101273004396015395FEC2A04396025395FDC2A126
:101283004396205395DFC2A543B22053B1DFC2B5C5
:03129300C2B722BD
:10160B00EF90169C93FE1392A4EEA2E192A7A2E296
:10161B0092B6A2E392A0A2E492A1A2E592A5A2E6C1
:03162B0092B52253
:10159200D281D2A6D2A3ED14600F1460142402707B
:1015A20016D281D2A6C2A3800ED281C2A6D2A380B5
:0A15B20006C281D2A6D2A302160BD6
:10112D00AB07AA06C3EA64809480402B7C007D64E3
:10113D001203E69000A9EFF07C007D0AAF03AE022A
:10114D001203E67C007D0A1203E6A3EDF07C007D20
:10115D000AAF03AE0280229000A97416F0C3E49B7F
:10116D00FFE49AFE7C007D0A1203E6A3EFF0C3E4D0
:10117D009BFFE49AFE7C007D0A1203E6A3EDF022AC
:1015E5009000A8E0FD24A9F582E43400F583E0FF2E
:1015F5001215929000A8E004F0E0C394037480945F
:05160500804002E4F04A
:01160A0022BD
:10164D0090FE10E04404F0E04408F0A3E04404F000
:0D165D00E04408F0E04410F0E04420F022EA
:10118D00E4FF2095047E0180027E00EEC43354E01E
:10119D004FFF2094047E0180027E00EEC454F04F78
:1011AD00FF2093047E0180027E00EE33333354F82A
:1011BD004FFF2092047E0180027E00EE25E025E0A7
:1011CD004FFF2083047E0180027E00EE25E04FFF5D
:0C11DD002082047E0180027E00EF4EFFA5
:0111E90022E3
:081752008F9BD2012001FD2252
:1016DD00120327FF600C121752740129F9E43AFA2C
:0316ED0080EE226A
:100CB800900071EFF0538EEF538EF7438E04E47B70
:100CC80004FAF9F8A3E0FCA3E0FDA3E0FEA3E0FF2B
:100CD80012046E900076E0F8A3E0F9A3E0FAA3E02E
:100CE800FB12046EC3E49FFFE49EFE74019DFDE4C5
:100CF8009CFCE4FB7A01F9F812046E8FD6E47B04BD
:100D0800FAF9F8900072E0FCA3E0FDA3E0FEA3E08E
:100D1800FF12046E900076E0F8A3E0F9A3E0FAA3CE
:100D2800E0FB12046EC3E49FFF8FD753AFFB438EE3
:100D380010539A7F43B50143B60143AF01439A105C
:100D4800900071E042BAC201E49000C1F09000C086
:020D5800F02287
:0D150C00900063EBF0A3EAF0A3E9F0AE0756
:10151900E4FDEDC39E501A900063E0FBA3E0FAA33B
:10152900E0F98D82758300120340FF1217520D8076
:01153900E1D0
:01153A00228E
:10101F00440000000000004F000A00000000000024
:10102F000000000000000000004400040000000069
:10103F00410039004C0019000000000000000000C2
:10104F0000000041003700410025004100380041F9
:03105F0000080086
:061336007B017A0079261C
:0B133C0090009FEBF0A3EAF0A3E9F0A3
:10134700E4A3F0A3F0FFED14FEEFC39E502490003A
:101357009FE0FBA3E0FAA3E0F98F827583001203F5
:1013670040FB9000A3E02BF09000A2E03400F00FC8
:0813770080D49000A2A3E0FF66
:01137F00224B
:1010CC0090006AEBF0A3EAF0A3E9F0A3ECF0A3ED37
:0110DC00F023
:1010DD00E4A3F0A3F0FFFE90006EE024FFFD90006E
:1010ED006DE034FFFCC3EF9DEC6480F8EE648098F6
:1010FD00502790006AE0FBA3E0FAA3E0F98F828EFF
:10110D0083120340FD900070E02DF090006FE034ED
:0F111D0000F00FBF00010E80BE90006FA3E0FF37
:01112C0022A0
:050D5A00900068EDF0BF
:100D5F0074FF90006DF0A3F0C2AFE4900069F0A3B0
:100D6F00F0900068E0FFC390006AE09F7480F890F5
:100D7F000069E06480985060120327FF90006DE0D7
:100D8F00F0A3E06FF0E4FDFC90006EE05401FF90E3
:100D9F00006BE4F0A3EFF0A3E0C313F0A3E013F0B4
:100DAF0090006BE07002A3E0600C90006DE064A017
:100DBF00F0A3E06401F00DBD00010CED64084C7070
:100DCF00C7740129F9E43AFA90006AE004F07091CF
:100DDF00900069E004F08089D2AF90006DE0FEA32F
:020DEF00E0FF23
:010DF10022DF
:10057700E4900065F0900014E0FEA3E0FF7C007DAE
:100587000A12037F900066EEF0A3EFF0900016E0EA
:10059700FEA3E0FF12037FAD07AC0690004EE0FF1D
:1005A700900065E0FE04F0744F2EF582E43400F508
:1005B70083EFF0900065E0FE04F0744F2EF582E4BF
:1005C7003400F5837403F0900065E0FF04F0744F86
:1005D7002FF582E43400F583740EF090000AE0FFF3
:1005E700900065E0FE04F0744F2EF582E43400F5C8
:1005F70083EFF090000AA3E0FF900065E0FE04F0AF
:10060700744F2EF582E43400F583EFF090000CE090
:10061700FF900065E0FE04F0744F2EF582E434008D
:10062700F583EFF090000CA3E0FF900065E0FE0477
:10063700F0744F2EF582E43400F583EFF090000E4E
:10064700E0FF900065E0FE04F0744F2EF582E4347D
:1006570000F583EFF090000EA3E0FF900065E0FE49
:1006670004F0744F2EF582E43400F583EFF0900028
:1006770010E0FF900065E0FE04F0744F2EF582E471
:100687003400F583EFF0900010A3E0FF900065E0E1
:10069700FE04F0744F2EF582E43400F583EFF090FA
:1006A7000012E0FF900065E0FE04F0744F2EF58223
:1006B700E43400F583EFF0900012A3E0FF900065AB
:1006C700E0FE04F0744F2EF582E43400F583EFF07A
:1006D700900066E0FF900065E0FE04F0744F2EF591
:1006E70082E43400F583EFF0900066A3E0FF90000A
:1006F70065E0FE04F0744F2EF582E43400F583EFD5
:10070700F0ECFF900065E0FE04F0744F2EF582E4F4
:100717003400F583EFF0AF05900065E0FE04F07458
:100727004F2EF582E43400F583EFF07B017A0079F0
:100737004F900065E0FD120D5AAD07900065E0FC93
:1007470004F0744F2CF582E43400F583EDF0EEFFEE
:10075700900065E0FE04F0744F2EF582E43400F556
:1007670083EFF0900065E0900009F0900037740186
:01077700F091
:01077800225E
:1015BC0090003CE0FEA3E0FDAC06A3E0FEA3E0FB44
:1015CC00AA06ED25E0FFEC33FE74192FF5827400AA
:0815DC003EF583EAF0A3EBF0F9
:0115E40022E4
:1016B400E4900038F0900008F0FE7F14FD7B017A7E
:0616C40000793A02054B1B
:100B6200E4900000F0900008E06410703F900026CE
:0B0B7200E064427037A3E0644D703176
:100B7D007D101213369000ACEFF0900035E06F60F1
:100B8D0003020C1090002CE0FEA3E0FDEDFF9000A1
:100B9D0001EEF0A3EFF09000007401F0900003F06F
:010BAD002225
:100BAE00900008E0640E705A900026E06464705263
:060BBE00A3E06469704C25
:100BC4007D0C1213369000ACE4F0A3EFF0900033E8
:100BD400E0FE900032E0FDEDFF9000AEEEF0A3EFFA
:100BE400F09000ACE0B50624A3E0B5071F90002BFD
:100BF400E0FE90002AE0FDEDFF900001EEF0A3EF8F
:0C0C0400F09000007401F090000304F078
:010C100022C1
:10077900900032E0900063F0900033E0900064F064
:100789007B017A0079267D117C001210CC900065DE
:10079900EFF0900064E0FCE4120272E4FBFA7920C5
:1007A9007841120141C004C005C006C0079000632A
:1007B900E0FCE4120272D003D002D001D000120092
:1007C9004D90006612050E900026E0643C7014A35B
:1007D900E064026002800C900036E0FF900065E062
:1007E9006F600CE4900018F0900008F0FEFF229072
:1007F90000187401F0900028E0FEA3E0FDEDFF90E1
:10080900000AEEF0A3EFF090002AE0FEA3E0FDED70
:10081900FF90000CEEF0A3EFF090002CE0FEA3E0B7
:10082900FDEDFF90000EEEF0A3EFF090002EE0FE3C
:10083900A3E0FDEDFF900010EEF0A3EFF090003083
:10084900E0FEA3E0FDEDFF900012EEF0A3EFF090C3
:100859000063E030E739547FF0A3E0FCE412027250
:10086900E4FBFA79207841120141C004C005C006B1
:10087900C007900063E0FCE4120272D003D002D0FA
:1008890001D00012004D12025790006612050E9019
:100899000066E0FCA3E0FDA3E0FEA3E0FF1202A6D0
:1008A900900014EEF0A3EFF0900035E0FCE41202A2
:1008B90072E4FBFA79207841120141C004C005C0F5
:1008C90006C007900034E0FCE4120272D003D002A3
:1008D900D001D00012004D1202A6900016EEF0A32E
:0708E900EFF0E4900008F0BD
:0108F00022E5
:1012E700E4900063F0A3F090004EE0FF90003AE036
:1012F7006F7036900039E0C394077480948040295A
:101307007B017A00793A7D06120D5AAC06AD07903B
:101317000041E0FE900040E0FBEBB5050CECB506A4
:0E13270008121407E4900039F0E4900039F049
:011335002295
:1014070090003BE024FA602D2403702C90003CE010
:101417006499600302057790003CE064997007A324
:10142700E06003C2B42290003CE06499700AA3E034
:091437007006D2B4221215BC2289
:0300430002106345
:10106300C0E0C0F0C083C082C0D075D000C000C053
:0D10730001C002C003C004C005C006C007D4
:101080001215E5E59A5401601D539AFEAF9B90003E
:1010900039E0FE04F0743A2EF582E43400F583EF73
:1010A000F0900025E4F0E59A54026005539AFDC2E1
:0110B000013E
:1010B100D007D006D005D004D003D002D001D00093
:0B10C100D0D0D082D083D0F0D0E0323D
:03002300020F8544
:100F8500C0E0C0F0C083C082C0D075D000C000C032
:100F950001C002C003C004C005C006C0071215E5A4
:100FA50030982CC298900008E0C394117480948006
:100FB5005013E0FF04F074262FF582E43400F58326
:100FC500E599F08005900008E4F0900025E4F03004
:100FD5009904C299C200D007D006D005D004D00329
:100FE500D002D001D000D0D0D082D083D0F0D0E0D4
:010FF50032C9
:1008F100900071ECF0A3EDF0EF24FE604D04600375
:100901000209C0438E80900071E0FEA3E0FBAA06BD
:10091100E4F9F8FF7EC07DA8FC121380C3E49FFFB9
:10092100E49EFE74019DFDE49CFCE4FB7A01F9F870
:100931001213808F8C900071E0FEA3E0FBAA06E405
:10094100F9F8FF7EC07DA8FC8057538E7F9000711F
:10095100E0FEA3E0FBAA06E4F9F8FF7EC07DA8FC57
:10096100121380E47B0CFAF9F8121380C3E49FFFA1
:10097100E49EFE74019DFDE49CFCE4FB7A01F9F820
:100981001213808F8C900071E0FEA3E0FBAA06E4B5
:10099100F9F8FF7EC07DA8FC121380E47B0CFAF904
:1009A100F8121380C3E49FFFE49EFE74019DFDE4F1
:1009B1009CFCE4FB7A01F9F8121380AF038F8A5390
:0F09C10089F0D28CD2A9C2B853B8FC53B7FC222C
:10004600020312E86480F8E933E83360110460F0D3
:10005600ED33EC337009E8FCE9FDEAFEEBFF220420
:1000660060DED3EB9FEA9EE99DE8C2E78CF0C2F71B
:1000760095F0400CE8CCF8E9CDF9EACEFAEBCFFBE7
:100086001202DD85D0F05804700320D5B3E8047061
:10009600075002B2D502031C92D5EC0460F7E4CCFB
:1000A600C0E0C398F8603B94186008400DD0E0FBB0
:1000B6000202F4E4FBFAC9FC8028E830E406E4C94D
:1000C600FBE4CAFCE830E305E4C9CACBFCE8540704
:1000D6006010F8C3E913F9EA13FAEB13FBEC13FC0F
:1000E600D8F130F52FC3E49CFCEF9BFFEE9AFEEDB2
:1000F60099FDD0E0FBEF4E4D4C701222DB0302035C
:1001060019EC2CFCEF33FFEE33FEED33FDED30E75B
:10011600EB0202F4EF2BFFEE3AFEED39FDD0E0FBE9
:1001260050130BBB000302031CED13FDEE13FEEF91
:0801360013FFEC13FC0202F4BC
:10013E0002031CEC5D046005E8590470030203120F
:10014E001202DD580460F6EC4860F2EC7004FDFE1D
:10015E00FF22C860DB2481C85009C3986002500694
:10016E000203199850CAF582E9294B4A7005AB82F1
:10017E0002030875F0007C1A7880C3EF9BEE9AEDAF
:10018E0099400DC3EF9BFFEE9AFEED99FDE842F00C
:10019E00DC23ACF0D0E0FFD0E0FED0E0FDAB82205F
:1001AE00E7101BEB60BAEC2CFCEF33FFEE33FEEDE9
:1001BE0033FD0202F4E803F830E705C0F075F000F5
:1001CE00EF2FFFEE33FEED33FD40B830E7C280AACD
:1001DE0074F8CC6480CCC86480C8F58204604FC3C8
:1001EE00EB9FF5F0EA9E42F0E99D42F0E89C45F067
:1001FE00603C501DE5825FFFE582D313CB5BCBF4F1
:10020E002B5582FB50280ABA002409B90020088019
:10021E001DE5825BFBE582D313CF5FCFF4C3132FB3
:10022E005582FF50090EBE00050DBD00010CC3EB3B
:10023E009FF5F0EA9E42F0E99D42F0E89C45F060A1
:09024E0007CC4820E701B3EC22C3
:10025700ED33EC33600A047003BD8004ECB2E7FCB5
:010267002274
:1002680075F020800E75F010800575F0087D007E11
:10027800007F003392D530D503120500EC334010CF
:10028800EF33FFEE33FEED33FDEC33FCD5F0ED221A
:0E029800E5F0247EA2D513CC92E7CDCEFF2256
:1002A600EDD2E7CD33EC3392D524814006E4FFFE50
:1002B600FDFC22FCE4CFCECDCC24E0501174FF80AF
:1002C600EDC3CC13CCCD13CDCE13CECF13CF04704C
:0702D600F030D5DE02050047
:1002DD00E9D2E7C933E833F892D5EDD2E7CD33EC67
:0702ED0033FC5002B2D522E0
:1002F400EC30E7100FBF000C0EBE00080DBD00046B
:100304000BEB6014A2D5EB13FCED92E7FD2274FF16
:10031400FCFDFEFF22E480F8A2D574FF13FC7D806F
:03032400E480EF83
:03000000020E8865
:0C0E8800787FE4F6D8FD758170020ECF73
:10032700BB010689828A83E0225002E722BBFE02D4
:09033700E32289828A83E4932207
:10034000BB010CE58229F582E5833AF583E0225072
:1003500006E92582F8E622BBFE06E92582F8E222BC
:0D036000E58229F582E5833AF583E49322D6
:10036D00BB010689828A83F0225002F722BBFE016F
:02037D00F32269
:10037F00EF8DF0A4A8F0CF8CF0A428CE8DF0A42E92
:02038F00FE224C
:10039100BC000BBE0029EF8DF084FFADF022E4CC50
:1003A100F875F008EF2FFFEE33FEEC33FCEE9DEC19
:1003B100984005FCEE9DFE0FD5F0E9E4CEFD22ED5F
:1003C100F8F5F0EE8420D21CFEADF075F008EF2FA9
:1003D100FFED33FD4007985006D5F0F222C398FD9A
:0503E1000FD5F0EA2237
:1003E600C2D5EC30E709B2D5E4C39DFDE49CFCEE32
:1003F60030E715B2D5E4C39FFFE49EFE120391C316
:10040600E49DFDE49CFC800312039130D507C3E410
:060416009FFFE49EFE22A0
:10041C00C5F0F8A3E028F0C5F0F8E582158270026B
:06042C001583E038F02208
:1004320075F008758200EF2FFFEE33FECD33CDCC81
:1004420033CCC58233C5829BED9AEC99E582984004
:100452000CF582EE9BFEED9AFDEC99FC0FD5F0D6E1
:10046200E4CEFBE4CDFAE4CCF9A88222B800C1B90B
:100472000059BA002DEC8BF084CFCECDFCE5F0CB49
:10048200F97818EF2FFFEE33FEED33FDEC33FCEB82
:1004920033FB10D703994004EB99FB0FD8E5E4F93D
:1004A200FA227818EF2FFFEE33FEED33FDEC33FC2A
:1004B200C933C910D7059BE99A4007EC9BFCE99A1E
:1004C200F90FD8E0E4C9FAE4CCFB2275F010EF2F63
:1004D200FFEE33FEED33FDCC33CCC833C810D70763
:1004E2009BEC9AE899400AED9BFDEC9AFCE899F89E
:0E04F2000FD5F0DAE4CDFBE4CCFAE4C8F92231
:10138000C2D5E830E70FB2D5E4C39BFBE49AFAE498
:1013900099F9E498F8EC30E717B2D51213B61204B5
:1013A0006EE4C39BFBE49AFAE499F9E498F88003AD
:1013B00012046E30D50DE4C39FFFE49EFEE49DFD54
:0413C000E49CFC228B
:0E050000C3E49FFFE49EFEE49DFDE49CFC220C
:0C050E00ECF0A3EDF0A3EEF0A3EFF02260
:10051A00A8828583F0D083D0821205311205311268
:10052A000531120531E473E493A3C583C5F0C5838D
:10053A00C8C582C8F0A3C583C5F0C583C8C582C82B
:01054A00228E
:10054B00EF4E6012EF60010EEDBB010B89828A83C7
:10055B00F0A3DFFCDEFA2289F05007F709DFFCA9D4
:0C056B00F022BBFEFCF309DFFCA9F0222B
:100E9400020DF2E493A3F8E493A34003F68001F275
:100EA40008DFF48029E493A3F85407240CC8C3335F
:100EB400C4540F4420C8834004F456800146F6DF2E
:100EC400E4800B0102040810204080900FF6E47EB9
:100ED400019360BCA3FF543F30E509541FFEE49323
:100EE400A360010ECF54C025E060A840B8E493A3EA
:100EF400FAE493A3F8E493A3C8C582C8CAC583CA15
:100F0400F0A3C8C582C8CAC583CADFE9DEE780BECC
:01106200008D
:00000001FF
