:0C1B40004400A3000000004200A00000D0
:1014EB00E4F593F594F591F592F595F596F5B1F53F
:1014FB00B2F5C9F5CA4396045395FB43B21053B1E9
:10150B00E0D2A2D2B4121DD8120026121F867DE89B
:10151B007C037F01120F6012198312187590002A39
:10152B00EFF09000791206D800A8C00090007D1251
:10153B0006D800002580E4FF12126790007912068E
:10154B00D800A8C00090007D1206D800002580E4CA
:10155B00FF12130ED2AF9000A3E0FCA3E0FDA3E0BB
:10156B00FEA3E0FF12039B7C037DE812056AAE0429
:07157B00AF0512181580DF17
:10144F007F08121CB29000A0EEF0A3EFF0FDAC06E7
:10145F00E4120362E4FBFA79BA78C212004D9000ED
:10146F00A31206CCE4FFFE7DA07C409000A3E0F821
:10147F00A3E0F9A3E0FAA3E0FB12013EE4FBFA7943
:10148F00807844120247E4FBFA79C8784212013E91
:10149F009000A31206CCE4FFFEFDFC9000A3E0F841
:1014AF00A3E0F9A3E0FAA3E0FB1202E4500A9000D4
:1014BF00A31206D800000000E4FFFE7DC87C429016
:1014CF0000A3E0F8A3E0F9A3E0FAA3E0FB12013ECA
:0C14DF0012039B900008EEF0A3EFF02237
:101EB30090000EE07004A3E064017003C2B422D268
:021EC300B42247
:101B8100900013E06021900005E0FF7B017A00796D
:101B91002B121C57900005E0FF7B017A00792B1274
:101BA1001C28E4900013F0121D79900012E004F05B
:0C1BB100E0C3940A4005E4F0121A272259
:031F9300B2A222D5
:0100210022BC
:061F8D00121EB302144F06
:03000B000216A238
:1016A200C0E0C0F0C083C082C0D075D000C000C00E
:1016B20001C002C003C004C005C006C007121B81DE
:1016C2009000A2E004F090009FE004F07006900009
:1016D2009EE004F090009DE004F09000A2E0C3942C
:1016E2000A4005120021E4F090009DE0C39464409A
:1016F20008121F8D90009DE4F0C390009FE094F4C7
:1017020090009EE094014007121F93E4F0A3F0D0F2
:1017120007D006D005D004D003D002D001D000D02B
:0A172200D0D082D083D0F0D0E032A6
:071F6A007F027E00021E420F
:0B1D9B00EFF0A3EBF0A3EAF0A3E9F0E7
:101DA600D2B3121F6AD2B2121F6AC2B3121F6AC21C
:041DB600B2021F6AEC
:051BF4009000C7EFF0B6
:101BF900A37408F09000C7E0FF30E704D2B3800275
:101C0900C2B3EF25E09000C7F0121F6AD2B2121FCB
:0E1C19006AC2B2121F6A9000C8E014F070D6C2
:011C2700229A
:101EC500D2B3121F6AD2B2121F6AA2B3C2B2021FE4
:011ED5006AA2
:101C86009000C97408F0D2B3D2B2121F6A9000CA8B
:101C9600E0FF25E0F030B303E004F0C2B2121F6AA1
:0B1CA6009000C9E014F070E0A3E0FF24
:011CB1002210
:0F1ED600C2B3121F6AD2B2121F6AC2B2021F6ACF
:0F1EE500D2B3121F6AD2B2121F6AC2B2021F6AB0
:0F1EF400C2B3121F6AD2B2121F6AD2B3021F6AA0
:101ABB009000A7121D9B7F5A121BF4121EC590009B
:101ACB00A7E0FF121BF4121EC59000A8E0FBA3E0D9
:101ADB00FAA3E0F9120512FF121BF49000A9E475AA
:101AEB00F0011205A0121EC59000ABE014F070D9E6
:031AFB00021EF4D4
:1018D2009000AC121D9B7F5A121BF4121EC5900081
:1018E200ACE0FF121BF4121EC5121DA67F5B121B79
:1018F200F4121EC5121C869000ADE0FBA3E0FAA311
:10190200E0F9EF1205589000AEE475F0011205A05F
:101912009000B0E064016003121ED69000B0E014A3
:09192200F070D1121EE5021EF462
:101BBD009000BEEFF0A3EDF0A3EBF0121DA6900088
:101BCD00BEE025E0FF121BF4121EC59000BFE0FF22
:101BDD00121BF4121EC59000C0E0FF121BF4121E62
:071BED00C5121EF47F002267
:1019D6009000B1EFF0A3ED121D9C9000B1E025E060
:1019E600FF121BF4121EC59000B2E0FF121BF41288
:1019F6001EC5121EF4121DA69000B1E025E004FFDC
:101A0600121BF4121EC5121C869000B3E0FBA3E065
:101A1600FAA3E0F9EF120558121EE5121EF47F0034
:011A2600229D
:081F03007F0F7E5ADEFEDFFCB9
:011F0B0022B3
:061F710000007F01DFFE0D
:011F77002247
:041E2900AD07AC064F
:101E2D00E4FBFAC3EB9DEA9C500A121F030BBB00A7
:041E3D00010A80EF27
:011E4100227E
:041E4200AD07AC0636
:101E4600E4FBFAC3EB9DEA9C500A121F710BBB0020
:041E5600010A80EF0E
:011E5A002265
:080003008F99D2002000FD22BC
:10000E00120512FF600C120003740129F9E43AFA8A
:03001E0080EE224F
:10126700900078EFF0C28E538EFE438E405389BFB5
:101277005389CFE47B04FAF9F8A3E0FCA3E0FDA3CC
:10128700E0FEA3E0FF1205F290007DE0F8A3E0F98D
:10129700A3E0FAA3E0FB1205F2C3E49FFFE49EFE7E
:1012A70074019DFDE49CFCE4FB7A01F9F81205F258
:1012B7008F8DE47B04FAF9F8900079E0FCA3E0FD58
:1012C700A3E0FEA3E0FF1205F290007DE0F8A3E0A3
:1012D700F9A3E0FAA3E0FB1205F2C3E49FFF8F8BAB
:1012E700C2ABD28EE598543F4440F598D2BC43B781
:1012F70010D2ACD29C900078E042A2C200E49000E9
:07130700CCF09000CBF022B6
:0D1C2800900066EBF0A3EAF0A3E9F0AE0730
:101C3500E4FDEDC39E501A900066E0FBA3E0FAA315
:101C4500E0F98D8275830012052BFF1200030D80CC
:011C5500E1AD
:011C5600226B
:031F960000000048
:061DF500EFF07D097F778D
:101DFB00E49000DBF07B017A0079DB1219D69000BE
:031E0B00DBE0FF1A
:011E0E0022B1
:0510FE009000CDEDF0B3
:10110300EFC454F04DA3F0EDD39403400E121DF73A
:10111300EF4404FB7D097F77121BBD9000CDE014E3
:10112300B40700507790113675F003A4C58325F0FA
:10113300C5837302114B02115702116302116F022F
:10114300117B02118702119390005E1206D80018DA
:101153000000805290005E1206D8003800008046DE
:1011630090005E1206D800780000803A90005E126C
:1011730006D80003E000802E90005E1206D8000718
:10118300E000802290005E1206D8000FE000801677
:1011930090005E1206D8001FE000800A90005E12E5
:1011A30006D8000800009000CEE0FB7D067F7702A2
:0211B3001BBD62
:051039009000CFEDF076
:10103E00EFC454F0FFAE03EEC433333354804FFF8E
:10104E00E0FE4FA3F0EED39403400E121DF7EF44D3
:10105E0008FB7D097F77121BBD9000CFE014B4070B
:10106E0000507790107F75F003A4C58325F0C583DB
:10107E00730210940210A00210AC0210B80210C439
:10108E000210D00210DC9000621206D80018000088
:10109E0080529000621206D8003800008046900000
:1010AE00621206D800780000803A9000621206D8CC
:1010BE000003E000802E9000621206D80007E000C8
:1010CE0080229000621206D8000FE0008016900079
:1010DE00621206D8001FE000800A9000621206D845
:1010EE00000800009000D0E0FB7D077F77021BBD5B
:081F42007D087F77121DFB22D0
:091F0C00AB077D087F77021BBDC5
:091F15007B027D087F77021BBDF1
:091F1E007B017D087F77021BBDE9
:091F2700E4FB7D087F77021BBD7D
:071D2F009000D1EFF0A3EDDD
:101D3600121DF69000D2E064019000D16006E0F436
:101D46005FFF8003E04FFFAB077D097F77021BBD76
:031E73009000DC00
:101E7600121DF5EF54F7FF9000DCE04FFB7D097F64
:041E860077021BBD07
:031DBA009000DDB9
:101DBD00121DF5EF547FFF9000DDE0FEC433333389
:0B1DCD0054804FFB7D097F77021BBD97
:081F4A007D0A7F77121DFB22C6
:081F52007D0B7F77121DFB22BD
:091F30007B097D0C7F77021BBDCB
:091F39007B807D0C7F77021BBD4B
:081F5A007D0D7F77121DFB22B3
:10078A007D107F77121DFBE4FCFDFE90009112069E
:10079A00CC7D117F77121DFBE4FCFDFE90009912BF
:1007AA0006CC900091A3A3E0FEA3E0C4F8540FC8BE
:1007BA0068FFEEC454F048FE3395E0FDFCC004C067
:1007CA0005C006C007900099E0FCA3E0FDA3E0FE87
:1007DA00A3E0FF7804120692D003D002D001D00021
:1007EA00EF4BFFEE4AFE90003FEEF0A3EFF0EE90E3
:1007FA00003F30E305E044F08001E0FEA3E0FF9013
:10080A00003FEEF0A3EFF07D117F77121DFBE4FCB1
:10081A00FDFE9000911206CC7D127F77121DFBE43B
:10082A00FCFDFE9000991206CC900091A3A3A3E0D0
:10083A00540FFFEFFE3395E0FC900099A3E0F9A373
:10084A00E0FAA3E0FFEA4EFE900041EEF0A3EFF0DB
:10085A00EE90004130E305E044F08001E0FEA3E0C1
:10086A00FF900041EEF0A3EFF07D137F77121DFB9E
:10087A00E4FCFDFE9000911206CC7D147F77121DD8
:10088A00FBE4FCFDFE9000951206CC7D157F7712E5
:10089A001DFBE4FCFDFE9000991206CC900095E049
:1008AA00FCA3E0FDA3E0FEA3E0FF78041206B9C0B2
:1008BA0004C005C006C007900091E0FCA3E0FDA3B8
:1008CA00E0FEA3E0FF780C1206B9D003D002D001F3
:1008DA00D000EF4BFFEE4AFEED49FDEC48FCC004A8
:1008EA00C005C006C007900099E0FCA3E0FDA3E0A4
:1008FA00FEA3E0FF78041206A5D003D002D001D0EF
:10090A0000EF4BFFEE4AFEED49FDEC48FC90004338
:10091A001206CC900043A3E0FDED5408FDED9000D3
:10092A00436012A3E0FDA3E0FEA3E0FFED44F0FD67
:10093A0074FFFC800BE0FCA3E0FDA3E0FEA3E0FF54
:10094A009000431206CC7D157F77121DFBE4FCFD57
:10095A00FE9000911206CC7D167F77121DFBE4FCF7
:10096A00FDFE9000951206CC7D177F77121DFBE4E1
:10097A00FCFDFE9000991206CC900095E0FCA3E0E5
:10098A00FDA3E0FEA3E0FF78081206B9C004C00583
:10099A00C006C007900091E0FCA3E0FDA3E0FEA31F
:1009AA00E0FF78101206B9D003D002D001D000EFD0
:1009BA004BFFEE4AFEED49FDEC48FC900099E0F849
:1009CA00A3E0F9A3E0FAA3E04FFFEA4EFEE94DFDEA
:1009DA00E84CFC9000471206CC900047A3E0FDEDDE
:1009EA005408FDED9000476012A3E0FDA3E0FEA3CA
:1009FA00E0FFED44F0FD74FFFC800BE0FCA3E0FD9A
:100A0A00A3E0FEA3E0FF9000471206CC7D187F7793
:100A1A00121DFBE4FCFDFE9000911206CC7D197FAD
:100A2A0077121DFBE4FCFDFE9000991206CC9000A3
:100A3A0091A3A3A3E0FE3395E0FC900099A3E0F90B
:100A4A00A3E0FAA3E0FFEA4EFE90004BEEF0A3EF1C
:100A5A00F07D1A7F77121DFBE4FCFDFE90009112D7
:100A6A0006CC7D1B7F77121DFBE4FCFDFE900099EE
:100A7A001206CC900091A3A3A3E0FE3395E0FC906C
:100A8A000099A3E0F9A3E0FAA3E0FFEA4EFE900082
:100A9A004DEEF0A3EFF07D1C7F77121DFBE4FCFD09
:100AAA00FE9000911206CC7D1D7F77121DFBE4FC9F
:100ABA00FDFE9000991206CC900091A3A3A3E0FE3C
:100ACA003395E0FC900099A3E0F9A3E0FAA3E0FFD4
:100ADA00EA4EFE90004FEEF0A3EFF07D1E7F7712F4
:100AEA001DFBE4FCFDFE9000911206CC7D1F7F7772
:100AFA00121DFBE4FCFDFE9000991206CC900091B9
:100B0A00A3A3A3E0FE3395E0FC900099A3E0F9A328
:100B1A00E0FAA3E0FFEA4EFE900051EEF0A3EFF0F8
:100B2A007D207F77121DFBE4FCFDFE9000911206EA
:100B3A00CC7D217F77121DFBE4FCFDFE900099120B
:100B4A0006CC900091A3A3A3E0FE900099A3A3E092
:0F0B5A00FAA3E0FFEA4EFE900053EEF0A3EFF097
:010B69002269
:101AFE00121F429000DEEFF030E7F512078A121F38
:101B0E00429000DEEFF030E6F5121F5A900055EFCE
:101B1E00F054F0641060037F01227D057F071210E0
:101B2E00FE7B017D037F051210397F07121F0C7F8C
:011B3E0000A6
:011B3F002283
:1011B50078C17C007D017BFF7A1F79967E007F03D5
:1011C5001204EC7D037F77121DFB9000C1EFF07DCB
:1011D500047F77121DFB9000C2EFF07D057F77122B
:1011E5001DFB9000C3EFF09000C2E0FFE4FCFDFEA4
:1011F50078081206B9C004C005C006C0079000C132
:10120500E0FFE4FCFDFE78101206B9D003D002D051
:1012150001D000EF4BFBEE4AFAED49F9EC48F890A6
:1012250000C3E0FFEB4FFFEAFEE9FDE8FC90005A42
:101235001206CC90005AA3E0FDED5480FDED900020
:101245005A600EA3E0FDA3E0FEA3E0FF74FFFC805F
:101255000BE0FCA3E0FDA3E0FEA3E0FF90005A0233
:0212650006CCB5
:1013B000E4FD7F77121DFB9000C4EFF07D017F7785
:1013C000121DFB9000C5EFF07D027F77121DFB9090
:1013D00000C6EFF09000C5E0FFE4FCFDFE780812C7
:1013E00006B9C004C005C006C0079000C4E0FFE411
:1013F000FCFDFE78101206B9D003D002D001D00057
:10140000EF4BFBEE4AFAED49F9EC48F89000C6E0E4
:10141000FFEB4FFFEAFEE9FDE8FC9000561206CC18
:10142000900056A3E0FDED5480FDED900056600E57
:10143000A3E0FDA3E0FEA3E0FF74FFFC800BE0FC53
:0F144000A3E0FDA3E0FEA3E0FF9000560206CC60
:10172C00900062E0FCA3E0FDA3E0FEA3E0FFEC125E
:10173C00035DC004C005C006C00790005AE0FCA3BE
:10174C00E0FDA3E0FEA3E0FFEC12035DD003D002AA
:10175C00D001D0001202479000B61206CC90004186
:10176C00E0FCA3E0FDEC1203629000B6E0F8A3E00D
:10177C00F9A3E0FAA3E0FB12013EC004C005C006C9
:10178C00C00790003FE0FCA3E0FDEC120362E4FB19
:10179C00FAF9783F12013ED003D002D001D00012EA
:0217AC00004DEE
:0117AE002218
:100B6A00900062E0FCA3E0FDA3E0FEA3E0FFEC122C
:100B7A00035DC004C005C006C00790005AE0FCA38C
:100B8A00E0FDA3E0FEA3E0FFEC12035DD003D00278
:100B9A00D001D0001202479000811206CC90005E6C
:100BAA00E0FCA3E0FDA3E0FEA3E0FFEC12035DC0BE
:100BBA0004C005C006C007900056E0FCA3E0FDA3F0
:100BCA00E0FEA3E0FFEC12035DD003D002D001D017
:100BDA00001202479000851206CC900053E0FCA355
:100BEA00E0FDEC120362900085E0F8A3E0F9A3E0CF
:100BFA00FAA3E0FB12013EC004C005C006C007907C
:100C0A00004FE0FCA3E0FDEC120362D003D002D057
:100C1A0001D00012004D900085E0F8A3E0F9A3E0AE
:100C2A00FAA3E0FB12013EC004C005C006C007904B
:100C3A000047E0FCA3E0FDA3E0FEA3E0FFEC120303
:100C4A005DD003D002D001D00012004D900089126D
:100C5A0006CC900051E0FCA3E0FDEC120362900088
:100C6A0085E0F8A3E0F9A3E0FAA3E0FB12013EC095
:100C7A0004C005C006C00790004DE0FCA3E0FDECEF
:100C8A00120362D003D002D001D00012004DC0047A
:100C9A00C005C006C007900085E0FCA3E0FDA3E004
:100CAA00FEA3E0FF900081E0F8A3E0F9A3E0FAA335
:100CBA00E0FB12013ED003D002D001D00012013E67
:100CCA0090008D1206CC900089E0FCA3E0FDA3E021
:100CDA00FEA3E0FF900085E0F8A3E0F9A3E0FAA301
:100CEA00E0FB12013EC004C005C006C007900043E5
:100CFA00E0FCA3E0FDA3E0FEA3E0FFEC12035DD05D
:100D0A0003D002D001D00012004DC004C005C006B5
:100D1A00C00790004BE0FCA3E0FDEC1203629000D8
:100D2A0081E0F8A3E0F9A3E0FAA3E0FB12013ED0C8
:100D3A0003D002D001D00012004D90008DE0F8A33C
:0B0D4A00E0F9A3E0FAA3E0FB12004D6B
:010D5500227B
:071F78001211B512172C2213
:071F7F001213B0120B6A22DD
:071F86004393015394FE2276
:1000260043BA8090FEA8743FF053BA7F43DE2F4355
:0D003600BC80E4F5BDF5BE7F05FE021E296D
:101CB200900066EFF043BC407F017E00121E299027
:101CC2000066E042BC00000000E5BC30E5FB53BC0E
:0A1CD200DFAFBDEFFEADBEEDFF2257
:100E87009000D3ECF0A3EDF0EF24FE604D04600377
:100E9700020F56438E049000D3E0FEA3E0FBAA06A0
:100EA700E4F9F8FF7EC07DA8FC121A77C3E49FFF20
:100EB700E49EFE74019DFDE49CFCE4FB7A01F9F8D5
:100EC700121A778FD69000D3E0FEA3E0FBAA06E4C0
:100ED700F9F8FF7EC07DA8FC8057538EFB9000D3A6
:100EE700E0FEA3E0FBAA06E4F9F8FF7EC07DA8FCBC
:100EF700121A77E47B0CFAF9F8121A77C3E49FFF0A
:100F0700E49EFE74019DFDE49CFCE4FB7A01F9F884
:100F1700121A778FD69000D3E0FEA3E0FBAA06E46F
:100F2700F9F8FF7EC07DA8FC121A77E47B0CFAF96A
:100F3700F8121A77C3E49FFFE49EFE74019DFDE457
:100F47009CFCE4FB7A01F9F8121A77AF038FD743B9
:090F5700AF04538FFB438E1022FE
:101E5B003F065B4F666D7D077F6F777C395E7971CF
:081E6B007638373E735C40003D
:0A1B4C004300BB0000004100BA0096
:101983004394025393FDC2814396405395BFC2A62D
:101993004396085395F7C2A34396105395EFC2A4F9
:1019A30043968053957FC2A743B24053B1BFC2B69B
:1019B3004396015395FEC2A04396025395FDC2A1DF
:1019C3004396205395DFC2A543B22053B1DFC2B57E
:0319D300C2B72276
:101D5600EF901E5B93FE1392A4EEA2E192A7A2E27D
:101D660092B6A2E392A0A2E492A1A2E592A5A2E66F
:031D760092B52201
:101CDC00D281D2A6D2A3ED14600F1460142402702A
:101CEC0016D281D2A6C2A3800ED281C2A6D2A38064
:0A1CFC0006C281D2A6D2A3021D5633
:10181500AB07AA06C3EA64809480402B7C007D64F4
:1018250012056A9000BBEFF07C007D0AAF03AE02A3
:1018350012056A7C007D0A12056AA3EDF07C007D25
:101845000AAF03AE0280229000BB7416F0C3E49B7E
:10185500FFE49AFE7C007D0A12056AA3EFF0C3E45B
:101865009BFFE49AFE7C007D0A12056AA3EDF02237
:101D79009000BAE0FD24BBF582E43400F583E0FF6E
:101D8900121CDC9000BAE004F0E0C394034002E4C2
:011D9900F059
:011D9A002226
:101DD80090FE10E04404F0E04408F0A3E04404F06E
:0D1DE800E04408F0E04410F0E04420F02258
:10187500E4FF2095047E0180027E00EEC43354E02F
:101885004FFF2094047E0180027E00EEC454F04F89
:10189500FF2093047E0180027E00EE33333354F83B
:1018A5004FFF2092047E0180027E00EE25E025E0B8
:1018B5004FFF2083047E0180027E00EE25E04FFF6E
:0C18C5002082047E0180027E00EF4EFFB6
:0118D10022F4
:081F62008F9BD2012001FD223A
:101EA000120512FF600C121F62740129F9E43AFA5C
:031EB00080EE229F
:10130E00900078EFF0538EEF538EF7438E04E47B0C
:10131E0004FAF9F8A3E0FCA3E0FDA3E0FEA3E0FFCE
:10132E001205F290007DE0F8A3E0F9A3E0FAA3E045
:10133E00FB1205F2C3E49FFFE49EFE74019DFDE4E3
:10134E009CFCE4FB7A01F9F81205F28FD6E47B04DB
:10135E00FAF9F8900079E0FCA3E0FDA3E0FEA3E02B
:10136E00FF1205F290007DE0F8A3E0F9A3E0FAA3E6
:10137E00E0FB1205F2C3E49FFF8FD753AFFB438E02
:10138E0010539A7F43B50143B60143AF01439A1000
:10139E00900078E042BAC201E49000D8F09000D7F5
:0213AE00F0222B
:0D1C5700900066EBF0A3EAF0A3E9F0AE0701
:101C6400E4FDEDC39E501A900066E0FBA3E0FAA3E6
:101C7400E0F98D8275830012052BFF121F620D801F
:011C8400E17E
:011C8500223C
:101B560044000000000000410015004C0006000093
:101B660000000000000000000000410013004100DA
:0A1B760012004100140041000400B9
:0515820090006FEDF088
:1015870074FF900074F0A3F0E4900070F0A3F09063
:10159700006FE0FFC3900071E09F7480F8900070C7
:1015A700E06480985060120512FF900074E0F0A389
:1015B700E06FF0E4FDFC900075E05401FF900072CD
:1015C700E4F0A3EFF0A3E0C313F0A3E013F090005F
:1015D70072E07002A3E0600C900074E064A0F0A3D6
:1015E700E06401F00DBD00010CED64084C70C77498
:1015F7000129F9E43AFA900071E004F07091900043
:0E16070070E004F08089900074E0FEA3E0FF24
:0116150022B2
:100D5600E4900068F0900018E0FEA3E0FDEDFF903F
:100D66000069EEF0A3EFF090001AE0FEA3E0FDEDBF
:100D7600FF90006BEEF0A3EFF0E4A3F0A3F0900079
:100D860016E0FF900068E0FE04F0742B2EF582E476
:100D96003400F583EFF0900068E0FF04F0742B2F29
:100DA600F582E43400F5837403F090006CE025E0EE
:100DB600FF900068E0FE04F0742B2EF582E4340008
:100DC600F583EFF0E4FDEDFFD390006CE09F90001B
:100DD6006BE09400405690006AE02FFF900069E0B7
:100DE6003400FEEF25E0FBEE33FA74062BF5827431
:100DF600003AF583E0FF900068E0FE04F0742B2EC5
:100E0600F582E43400F583EFF074062BF582740066
:100E16003AF583A3E0FF900068E0FE04F0742B2E01
:100E2600F582E43400F583EFF00D809A7B017A00B9
:100E3600792B900068E0FD12158290006DEEF0A30C
:100E4600EFF090006DE0FEA3E0FD900068E0FC048A
:100E5600F0742B2CF582E43400F583EDF0EEFF9070
:100E66000068E0FE04F0742B2EF582E43400F5836E
:100E7600EFF0900068E0900005F09000137401F028
:010E86002249
:101D0600900018E0FEA3E0FDAC06A3E0FEA3E0FB16
:101D1600AA06ED25E0FFEC33FE74062FF58274006B
:081D26003EF583EAF0A3EBF0A7
:011D2E002292
:101E8A00E4900014F0900004F0FE7F14FD7B017AC8
:061E9A00007916020709A1
:101A2700E4900066F0A3F090002AE0FF900016E033
:101A3700FE6F6004EEF47032900015E0C394074027
:101A4700297B017A0079167D06121582AC06AD074F
:101A570090001DE0FE90001CE0FBEBB5050CECB51B
:0F1A67000608121E0FE4900015F0E4900015F031
:011A7600224D
:101E0F00900017E024FA600E2403700D900016E086
:0A1E1F00F46006020D56121D0622A3
:0300430002192B74
:10192B00C0E0C0F0C083C082C0D075D000C000C082
:0D193B0001C002C003C004C005C006C00703
:10194800121D79E59A30E00E539AFE900076E59BD9
:10195800F0900012E4F0E59A30E105539AFDC201D7
:10196800D007D006D005D004D003D002D001D000D3
:0B197800D0D0D082D083D0F0D0E0327D
:030023000217AF12
:1017AF00C0E0C0F0C083C082C0D075D000C000C000
:0D17BF0001C002C003C004C005C006C00781
:1017CC00121D79309821C298900077E599F090001D
:1017DC0015E0FF04F074162FF582E43400F583E570
:0E17EC0099F0900012E4F0309904C299C20006
:1017FA00D007D006D005D004D003D002D001D00043
:0B180A00D0D0D082D083D0F0D0E032EC
:100F6000900078ECF0A3EDF0EF24FE604D046003F8
:100F700002102F438E80900078E0FEA3E0FBAA06CB
:100F8000E4F9F8FF7EC07DA8FC121A77C3E49FFF46
:100F9000E49EFE74019DFDE49CFCE4FB7A01F9F8FB
:100FA000121A778F8C900078E0FEA3E0FBAA06E48B
:100FB000F9F8FF7EC07DA8FC8057538E7F900078A3
:100FC000E0FEA3E0FBAA06E4F9F8FF7EC07DA8FCE2
:100FD000121A77E47B0CFAF9F8121A77C3E49FFF30
:100FE000E49EFE74019DFDE49CFCE4FB7A01F9F8AB
:100FF000121A778F8C900078E0FEA3E0FBAA06E43B
:10100000F9F8FF7EC07DA8FC121A77E47B0CFAF990
:10101000F8121A77C3E49FFFE49EFE74019DFDE47D
:101020009CFCE4FB7A01F9F8121A77AF038F8A531C
:0910300089F0D28CD2A9C2B822C9
:10004600020407E86480F8E933E83360110460F0DD
:10005600ED33EC337009E8FCE9FDEAFEEBFF220420
:1000660060DED3EB9FEA9EE99DE8C2E78CF0C2F71B
:1000760095F0400CE8CCF8E9CDF9EACEFAEBCFFBE7
:100086001203D285D0F05804700320D5B3E804706B
:10009600075002B2D502041192D5EC0460F7E4CC05
:1000A600C0E0C398F8603B94186008400DD0E0FBB0
:1000B6000203E9E4FBFAC9FC8028E830E406E4C957
:1000C600FBE4CAFCE830E305E4C9CACBFCE8540704
:1000D6006010F8C3E913F9EA13FAEB13FBEC13FC0F
:1000E600D8F130F52FC3E49CFCEF9BFFEE9AFEEDB2
:1000F60099FDD0E0FBEF4E4D4C701222DB0302045B
:100106000EEC2CFCEF33FFEE33FEED33FDED30E766
:10011600EB0203E9EF2BFFEE3AFEED39FDD0E0FBF3
:1001260050130BBB0003020411ED13FDEE13FEEF9B
:0801360013FFEC13FC0203E9C6
:10013E00EC4D6011E8497017ED33EC3304600DE4BB
:10014E00FCFFFEFD22E933E8330470F802040712C7
:10015E0003D258046009E4CC2481500628500902C9
:10016E00041128400302040EC0E0EB4A7044B9802B
:10017E0006D0E0FB0203FDEF4E701CBD8008EBFFC6
:10018E00EAFEE9FD80EBE98DF0A4FEE5F002022720
:10019E00E9CDF9EAFEEBFFEF89F0A4FCE5F0CE899C
:1001AE00F0A42EFFE435F0CD89F0A42DFEE435F059
:1001BE008067EF4E7005BD80D780C3EF8BF0A4AC87
:1001CE00F0EE8BF0A42CFCE435F0F8EF8AF0A42CC2
:1001DE00E5F038FCE433CB8DF0A42CFCE5F03BF8D5
:1001EE00EE8AF0A42CFCE5F038F8E433CF89F0A4C5
:1001FE002CFCE5F038CF3400CE89F0A42FFFE5F0CB
:10020E003EFEE433C98DF0A42EFEE5F039CD8AF022
:10021E00A42FFFE5F03EFEE43DFD33D0E0FB50079A
:10022E000BBB000F020411EC2CFCEF33FFEE33FE80
:06023E00ED33FD0203E9AF
:10024400020411EC5D046005E8590470030204071C
:100254001203D2580460F6EC4860F2EC7004FDFE20
:10026400FF22C860DB2481C85009C398600250068D
:1002740002040E9850CAF582E9294B4A7005AB82F4
:100284000203FD75F0007C1A7880C3EF9BEE9AEDB3
:1002940099400DC3EF9BFFEE9AFEED99FDE842F005
:1002A400DC23ACF0D0E0FFD0E0FED0E0FDAB822058
:1002B400E7101BEB60BAEC2CFCEF33FFEE33FEEDE2
:1002C40033FD0203E9E803F830E705C0F075F000F8
:1002D400EF2FFFEE33FEED33FD40B830E7C280AAC6
:1002E40074F8CC6480CCC86480C8F58204604FC3C1
:1002F400EB9FF5F0EA9E42F0E99D42F0E89C45F060
:10030400603C501DE5825FFFE582D313CB5BCBF4E9
:100314002B5582FB50280ABA002409B90020088012
:100324001DE5825BFBE582D313CF5FCFF4C3132FAC
:100334005582FF50090EBE00050DBD00010CC3EB34
:100344009FF5F0EA9E42F0E99D42F0E89C45F0609A
:0903540007CC4820E701B3EC22BC
:10035D0075F020800E75F010800575F0087D007E1B
:10036D00007F003392D530D503120684EC33401054
:10037D00EF33FFEE33FEED33FDEC33FCD5F0ED2224
:0E038D00E5F0247EA2D513CC92E7CDCEFF2260
:10039B00EDD2E7CD33EC3392D524814006E4FFFE5A
:1003AB00FDFC22FCE4CFCECDCC24E0501174FF80B9
:1003BB00EDC3CC13CCCD13CDCE13CECF13CF047056
:0703CB00F030D5DE020684CC
:1003D200E9D2E7C933E833F892D5EDD2E7CD33EC71
:0703E20033FC5002B2D522EA
:1003E900EC30E7100FBF000C0EBE00080DBD000475
:1003F9000BEB6014A2D5EB13FCED92E7FD2274FF21
:10040900FCFDFEFF22E480F8A2D574FF13FC7D8079
:03041900E480EF8D
:03000000021616CF
:0C161600787FE4F6D8FD7581A002165D17
:10041C00E709F608DFFA8046E709F208DFFA803EC2
:10042C0088828C83E709F0A3DFFA8032E309F608AF
:10043C00DFFA8078E309F208DFFA807088828C8317
:10044C00E309F0A3DFFA806489828A83E0A3F608CB
:10045C00DFFA805889828A83E0A3F208DFFA804CA5
:10046C0080D280FA80C680D4806980F2803380107C
:10047C0080A680EA809A80A880DA80E280CA8033E5
:10048C0089828A83ECFAE493A3C8C582C8CCC5835D
:10049C00CCF0A3C8C582C8CCC583CCDFE9DEE7802D
:1004AC000D89828A83E493A3F608DFF9ECFAA9F0AC
:1004BC00EDFB2289828A83ECFAE0A3C8C582C8CC02
:1004CC00C583CCF0A3C8C582C8CCC583CCDFEADE1B
:1004DC00E880DB89828A83E493A3F208DFF980CC7D
:1004EC0088F0EF60010E4E60C388F0ED2402B40476
:1004FC000050B9F582EB2402B4040050AF2323451D
:06050C00822390046C73D1
:10051200BB010689828A83E0225002E722BBFE02E7
:09052200E32289828A83E493221A
:10052B00BB010CE58229F582E5833AF583E0225085
:10053B0006E92582F8E622BBFE06E92582F8E222CF
:0D054B00E58229F582E5833AF583E49322E9
:10055800BB010689828A83F0225002F722BBFE0182
:02056800F3227C
:10056A00C2D5EC30E709B2D5E4C39DFDE49CFCEEAC
:10057A0030E715B2D5E4C39FFFE49EFE120735C3E8
:10058A00E49DFDE49CFC800312073530D507C3E4E3
:06059A009FFFE49EFE221B
:1005A000C5F0F8A3E028F0C5F0F8E58215827002E6
:0605B0001583E038F02283
:1005B60075F008758200EF2FFFEE33FECD33CDCCFC
:1005C60033CCC58233C5829BED9AEC99E58298407F
:1005D6000CF582EE9BFEED9AFDEC99FC0FD5F0D65C
:1005E600E4CEFBE4CDFAE4CCF9A88222B800C1B986
:1005F6000059BA002DEC8BF084CFCECDFCE5F0CBC4
:10060600F97818EF2FFFEE33FEED33FDEC33FCEBFC
:1006160033FB10D703994004EB99FB0FD8E5E4F9B7
:10062600FA227818EF2FFFEE33FEED33FDEC33FCA4
:10063600C933C910D7059BE99A4007EC9BFCE99A98
:10064600F90FD8E0E4C9FAE4CCFB2275F010EF2FDD
:10065600FFEE33FEED33FDCC33CCC833C810D707DD
:100666009BEC9AE899400AED9BFDEC9AFCE899F818
:0E0676000FD5F0DAE4CDFBE4CCFAE4C8F922AB
:101A7700C2D5E830E70FB2D5E4C39BFBE49AFAE49A
:101A870099F9E498F8EC30E717B2D5121AAD1205B8
:101A9700F2E4C39BFBE49AFAE499F9E498F880032B
:101AA7001205F230D50DE4C39FFFE49EFEE49DFDD1
:041AB700E49CFC228D
:0E068400C3E49FFFE49EFEE49DFDE49CFC2287
:10069200E8600FECC313FCED13FDEE13FEEF13FF46
:0306A200D8F1226A
:1006A500E86010ECA2E713FCED13FDEE13FEEF136B
:0406B500FFD8F02258
:1006B900E8600FEFC333FFEE33FEED33FDEC33FC9F
:0306C900D8F12243
:0C06CC00ECF0A3EDF0A3EEF0A3EFF022A1
:1006D800A8828583F0D083D0821206EF1206EF122B
:1006E80006EF1206EFE473E493A3C583C5F0C58350
:1006F800C8C582C8F0A3C583C5F0C583C8C582C86C
:0107080022CE
:10070900EF4E6012EF60010EEDBB010B89828A8307
:10071900F0A3DFFCDEFA2289F05007F709DFFCA914
:0C072900F022BBFEFCF309DFFCA9F0226B
:101622000214EBE493A3F8E493A34003F68001F2DF
:1016320008DFF48029E493A3F85407240CC8C333C9
:10164200C4540F4420C8834004F456800146F6DF98
:10165200E4800B0102040810204080901B40E47ECD
:10166200019360BCA3FF543F30E509541FFEE4938D
:10167200A360010ECF54C025E060A840B8E493A354
:10168200FAE493A3F8E493A3C8C582C8CAC583CA7F
:10169200F0A3C8C582C8CAC583CADFE9DEE780BE37
:011B80000064
:10073500BC000BBE0029EF8DF084FFADF022E4CCA8
:10074500F875F008EF2FFFEE33FEEC33FCEE9DEC71
:10075500984005FCEE9DFE0FD5F0E9E4CEFD22EDB7
:10076500F8F5F0EE8420D21CFEADF075F008EF2F01
:10077500FFED33FD4007985006D5F0F222C398FDF2
:050785000FD5F0EA228F
:00000001FF
