:100F4500420067000042007000004400630000009A
:0F0F5500004400740000000044006C0000000025
:100D4100E4F593F594F591F592F595F596F5B1F5F0
:100D5100B2F5C9F5CA4396045395FB43B20853B1A2
:100D6100F743B21053B1EFD2A2D2B4D2B31214DE10
:100D71007FE87E031215317FE87E031215317DE88D
:100D81007C037F011206D21210D112107490004E12
:100D9100EFF09000841204B300A8C0009000881204
:100DA10004B300002580E4FF120AC59000841204F8
:100DB100B300A8C0009000881204B300002580E4AD
:100DC100FF120B6CD2AF900067E0FEA3E0FF120CA4
:030DD1000E80F39E
:1015B700900021E07004A3E064017003C2B422D25A
:0215C700B4224C
:100ED400900074E0F8A3E0F9A3E0FAA3E0FB90002B
:100EE40063E0FCA3E0FDA3E0FEA3E0FF1200499051
:100EF40000AE1204A7E4FFFEFDFC9000AEE0F8A3F0
:100F0400E0F9A3E0FAA3E0FB1201DE60025009E479
:100F1400900070F0A3F080199000AEE0FCA3E0FD17
:100F2400A3E0FEA3E0FF1202A6900070EEF0A3EF90
:100F3400F0900070E0FFA3E090001DCFF0A3EFF06D
:010F4400228A
:10000E0090001FE07004A3E06401700690001FF0E2
:03001E00A3F0222A
:1014FB00900037E06013900009E0FF7B017A0079E0
:0C150B004F12139DE4900037F002149D75
:03163900B2A22238
:03163C000211D6C2
:03163F000215B7DA
:0C16070012088A900067EEF0A3EFF022BA
:03000B00020A11D5
:100A1100C0E0C0F0C083C082C0D075D000C000C0AB
:100A210001C002C003C004C005C006C0071214FB08
:100A3100900078E004F090006BE004F07006900004
:100A41006AE004F0900069E004F0900073E004F0C3
:100A51007006900072E004F0900078E0C3940A40C0
:100A61000812163C900078E4F0900069E0C39464A9
:100A7100400812163F900069E4F0C390006BE094C7
:100A8100F490006AE094014007121639E4F0A3F0F3
:100A9100C3900073E094E8900072E09403400A125E
:100AA1001607900072E4F0A3F0D007D006D005D06D
:100AB10004D003D002D001D000D0D0D082D083D0D6
:040AC100F0D0E0325F
:071624007F027E0002154A5F
:0B14BF00EFF0A3EBF0A3EAF0A3E9F0CC
:1014CA00D2B3121624D2B2121624C2B3121624C2EE
:0414DA00B202162420
:051369009000B8EFF058
:10136E00A37408F09000B8E0FF30E704D2B3800217
:10137E00C2B3EF25E09000B8F0121624D2B21216C6
:0E138E0024C2B21216249000B9E014F070D6FA
:01139C00222E
:1015C900D2B3121624D2B2121624A2B3C2B2021690
:0115D90024ED
:1013FB009000BA7408F0D2B3D2B21216249000BB8C
:10140B00E0FF25E0F030B303E004F0C2B212162483
:0B141B009000BAE014F070E0A3E0FFC6
:0114260022A3
:0F15DA00C2B3121624D2B2121624C2B2021624C1
:0F15E900D2B3121624D2B2121624C2B2021624A2
:0F15F800C2B3121624D2B2121624D2B302162492
:1012B40090009A1214BF7F5A1213691215C9900034
:1012C4009AE0FF1213691215C990009BE0FBA3E09A
:1012D400FAA3E0F9120327FF12136990009CE47546
:1012E400F0011203B51215C990009EE014F070D9F4
:0312F4000215F8E8
:10112C0090009F1214BF7F5A1213691215C99000B8
:10113C009FE0FF1213691215C91214CA7F5B1213B8
:10114C00691215C91213FB9000A0E0FBA3E0FAA3EF
:10115C00E0F9EF12036D9000A1E475F0011203B5F4
:10116C009000A3E0640160031215DA9000A3E01470
:09117C00F070D11215E90215F81A
:101332009000B2EFF0A3EDF0A3EBF01214CA90000C
:10134200B2E025E0FF1213691215C99000B3E0FF65
:101352001213691215C99000B4E0FF121369121535
:07136200C91215F87F0022FB
:101185009000A4EFF0A3ED1214C09000A4E025E0B8
:10119500FF1213691215C99000A5E0FF1213691219
:1011A50015C91215F81214CA9000A4E025E004FF31
:1011B5001213691215C91213FB9000A6E0FBA3E0F8
:1011C500FAA3E0F9EF12036D1215E91215F87F0085
:0111D50022F7
:081613007F0F7E5ADEFEDFFCB2
:01161B0022AC
:06162B0000007F01DFFE5C
:011631002296
:04153100AD07AC0650
:10153500E4FBFAC3EB9DEA9C500A1216130BBB00A1
:04154500010A80EF28
:01154900227F
:04154A00AD07AC0637
:10154E00E4FBFAC3EB9DEA9C500A12162B0BBB0070
:04155E00010A80EF0F
:011562002266
:080003008F99D2002000FD22BC
:10159100120327FF600C120003740129F9E43AFADF
:0315A10080EE22B7
:100AC500900083EFF0C28E538EFE438E405389BF54
:100AD5005389CFE47B04FAF9F8A3E0FCA3E0FDA376
:100AE500E0FEA3E0FF120407900088E0F8A3E0F918
:100AF500A3E0FAA3E0FB120407C3E49FFFE49EFE14
:100B050074019DFDE49CFCE4FB7A01F9F8120407ED
:100B15008F8DE47B04FAF9F8900084E0FCA3E0FDF6
:100B2500A3E0FEA3E0FF120407900088E0F8A3E02D
:100B3500F9A3E0FAA3E0FB120407C3E49FFF8F8B40
:100B4500C2ABD28EE598543F4440F598D2BC43B72A
:100B550010D2ACD29C900083E042A2C200E4900087
:070B6500BDF09000BCF0227E
:0D139D00900079EBF0A3EAF0A3E9F0AE07B1
:1013AA00E4FDEDC39E501A900079E0FBA3E0FAA396
:1013BA00E0F98D82758300120340FF1200030D804D
:0113CA00E141
:0113CB0022FF
:071632004393015394FE22D3
:1000260043BA8090FEA8743FF053BA7F43DE2F4355
:0D003600BC80E4F5BDF5BE7F05FE0215316E
:101427009000C6EFF043BC407F017E00121531905B
:1014370000C6E042BC00000000E5BC30E5FB53BC41
:0A144700DFAFBDEFFEADBEEDFF22EA
:1007B1009000BEECF0A3EDF0EF24FE604D04600369
:1007C100020880438E049000BEE0FEA3E0FBAA066F
:1007D100E4F9F8FF7EC07DA8FC121270C3E49FFF0C
:1007E100E49EFE74019DFDE49CFCE4FB7A01F9F8B2
:1007F1001212708FD69000BEE0FEA3E0FBAA06E4C1
:10080100F9F8FF7EC07DA8FC8057538EFB9000BE97
:10081100E0FEA3E0FBAA06E4F9F8FF7EC07DA8FC98
:10082100121270E47B0CFAF9F8121270C3E49FFF04
:10083100E49EFE74019DFDE49CFCE4FB7A01F9F861
:100841001212708FD69000BEE0FEA3E0FBAA06E470
:10085100F9F8FF7EC07DA8FC121270E47B0CFAF956
:10086100F8121270C3E49FFFE49EFE74019DFDE443
:100871009CFCE4FB7A01F9F8121270AF038FD743A5
:09088100AF04538FFB438E1022DB
:101563003F065B4F666D7D077F6F777C395E7971D0
:081573007638373E735C40003E
:0B0F64004400AA000000004100A900AA
:1010D10043B20853B1F7C2B34394025393FDC281A3
:1010E1004396405395BFC2A64396085395F7C2A3B2
:1010F1004396105395EFC2A443968053957FC2A7A0
:1011010043B24053B1BFC2B64396015395FEC2A04C
:101111004396025395FDC2A14396205395DFC2A584
:0B11210043B22053B1DFC2B5C2B722B9
:10147A00EF90156393FE1392A4EEA2E192A7A2E263
:10148A0092B6A2E392A0A2E492A1A2E592A5A2E654
:03149A0092B522E6
:1012F700D281D2A6D2A3D2B3ED146014146017140E
:10130700601E24037022D2B3D281D2A6C2A3801852
:10131700D281C2A68004C281D2A6D2A3D2B380084A
:0B132700D281D2A6D2A3C2B302147A76
:100C0E00AB07AA06C3EA6480948040477C037DE864
:100C1E0012037F7C007D0A12037F9000AAEDF07C08
:100C2E00007D64AF03AE0212037F7C007D0A1203C7
:100C3E007FA3EDF07C007D0AAF03AE0212037F7C32
:100C4E00007D0A12037FA3EDF07C007D0AAF03AE98
:100C5E000280419000AA7416F0C3E49BFFE49AFE52
:100C6E007C007D6412037F7C007D0A12037FA3ED5E
:100C7E00F0C3E49BFFE49AFE7C007D0A12037F7CA6
:100C8E00007D0A12037FA3EDF0C3E49BFFE49AFEFE
:0B0C9E007C007D0A12037FA3EDF02212
:10149D009000A9E0FD24AAF582E43400F583E0FF75
:1014AD001212F79000A9E004F0E0C394044002E4A6
:0114BD00F03E
:0114BE00220B
:1014DE0090FE10E04404F0E04408F0A3E04404F071
:0D14EE00E04408F0E04410F0E04420F0225B
:10107400E4FF2095047E0180027E00EEC43354E038
:101084004FFF2094047E0180027E00EEC454F04F92
:10109400FF2093047E0180027E00EE33333354F844
:1010A4004FFF2092047E0180027E00EE25E025E0C1
:1010B4004FFF2083047E0180027E00EE25E04FFF77
:0C10C4002082047E0180027E00EF4EFFBF
:0110D00022FD
:08161C008F9BD2012001FD2289
:1015A400120327FF600C12161C740129F9E43AFA9D
:0315B40080EE22A4
:100B6C00900083EFF0538EEF538EF7438E04E47BAB
:100B7C0004FAF9F8A3E0FCA3E0FDA3E0FEA3E0FF78
:100B8C00120407900088E0F8A3E0F9A3E0FAA3E0D0
:100B9C00FB120407C3E49FFFE49EFE74019DFDE479
:100BAC009CFCE4FB7A01F9F81204078FD6E47B0471
:100BBC00FAF9F8900084E0FCA3E0FDA3E0FEA3E0CA
:100BCC00FF120407900088E0F8A3E0F9A3E0FAA371
:100BDC00E0FB120407C3E49FFF8FD753AFFB438E98
:100BEC0010539A7F43B50143B60143AF01439A10AA
:100BFC00900083E042BAC201E49000C3F09000C2BE
:020C0C00F022D4
:0D13CC009000B5EBF0A3EAF0A3E9F0AE0746
:1013D900E4FDEDC39E501A9000B5E0FBA3E0FAA32B
:1013E900E0F98D82758300120340FF12161C0D80EF
:0113F900E112
:0113FA0022D0
:100F6F00440000000000004F000A000000000000D5
:100F7F00000000000000000000440004000000001A
:100F8F00410039004C001900000000000000000073
:100F9F0000000041003700410025004100380041AA
:030FAF0000080037
:061226007B017A0079262D
:0B122C0090007DEBF0A3EAF0A3E9F0D6
:10123700E4A3F0A3F0FFED14FEEFC39E502490004B
:101247007DE0FBA3E0FAA3E0F98F82758300120328
:1012570040FB900081E02BF0900080E03400F00F1D
:0812670080D4900080A3E0FF99
:01126F00225C
:100FB30090008CEBF0A3EAF0A3E9F0A3ECF0A3ED2F
:010FC300F03D
:100FC400E4A3F0A3F0FFFE900090E024FFFD900066
:100FD4008FE034FFFCC3EF9DEC6480F8EE648098EE
:100FE400502790008CE0FBA3E0FAA3E0F98F828EF7
:100FF40083120340FD900092E02DF0900091E034C4
:0F10040000F00FBF00010E80BE900091A3E0FF2F
:0110130022BA
:050CA90090007CEDF05D
:100CAE0074FF900081F0A3F0C2AFE490007DF0A33A
:100CBE00F090007CE0FFC390007EE09F7480F8907F
:100CCE00007DE06480985060120327FF900081E061
:100CDE00F0A3E06FF0E4FDFC900082E05401FF9081
:100CEE00007FE4F0A3EFF0A3E0C313F0A3E013F052
:100CFE0090007FE07002A3E0600C900081E064A0A1
:100D0E00F0A3E06401F00DBD00010CED64084C7021
:100D1E00C7740129F9E43AFA90007EE004F070916C
:100D2E0090007DE004F08089D2AF900081E0FEA3B8
:020D3E00E0FFD4
:010D40002290
:10095300E490007BF090003AE0FF90007BE0FD0420
:10096300F0744F2DF582E43400F583EFF090007BB3
:10097300E0FE04F0744F2EF582E43400F583740333
:10098300F090007BE0FF04F0744F2FF582E4340015
:10099300F5837402F0900001E0FCA3E0FDECFF900E
:1009A300007BE0FE04F0744F2EF582E43400F583FF
:1009B300EFF0AF0590007BE0FE04F0744F2EF5825C
:1009C300E43400F583EFF07B017A00794F90007BEC
:1009D300E0FD120CA9AD0790007BE0FC04F0744F1E
:1009E3002CF582E43400F583EDF0EEFF90007BE01C
:1009F300FE04F0744F2EF582E43400F583EFF0909B
:0D0A0300007BE0900009F09000377401F0D6
:010A100022C3
:1014510090003CE0FEA3E0FDAC06A3E0FEA3E0FBB0
:10146100AA06ED25E0FFEC33FE74192FF582740016
:081471003EF583EAF0A3EBF065
:011479002250
:10157B00E4900038F0900008F0FE7F14FD7B017AB8
:06158B0000793A0204E4BD
:10088A00E4900000F0900008E064107043900026A5
:0B089A00E06442703BA3E0644D703549
:1008A5007D10121226900079EFF0900035E0B50723
:1008B50022E4900008F090002CE0FEA3E0FDEDFF9F
:1008C500900001EEF0A3EFF09000007401F09000AD
:0308D50003806835
:1008D8008070900008E0640E706E900026E06464FA
:0808E8007066A3E06469706012
:1008F0007D0C121226900079E4F0A3EFF090003303
:10090000E0FE900032E0FDEDFF90007BEEF0A3EF03
:10091000F0900079E0B50632A3E0B5072DE4900031
:1009200008F090002BE0FE90002AE0FDEDFF900023
:1009300001EEF0A3EFF09000007401F090000304CA
:0F094000F0900001E0FEA3E0FF22E4900008F039
:04094F0022D2B422DA
:10056500900032E0900093F0900033E0900094F01A
:100575007B017A0079267D117C00120FB3900095DE
:10058500EFF0900094E0FCE4120272E4FBFA7920AB
:100595007841120141C004C005C006C00790009310
:1005A500E0FCE4120272D003D002D001D0001200A8
:1005B5004D9000961204A7900026E0B43C06A3E0F7
:1005C50064026002800C900036E0FF900095E06FB9
:1005D5006006E4900018F0229000187401F0900075
:1005E50028E0FEA3E0FDEDFF90000AEEF0A3EFF09A
:1005F50090002AE0FEA3E0FDEDFF90000CEEF0A3D5
:10060500EFF090002CE0FEA3E0FDEDFF90000EEE74
:10061500F0A3EFF090002EE0FEA3E0FDEDFF9000CB
:1006250010EEF0A3EFF0900030E0FEA3E0FDEDFF4B
:10063500900012EEF0A3EFF0900093E0FF30E73961
:10064500547FF0A3E0FCE4120272E4FBFA7920780F
:1006550041120141C004C005C006C007900093E0E7
:10066500FCE4120272D003D002D001D00012004D7A
:100675001202579000961204A7900096E0FCA3E0A2
:10068500FDA3E0FEA3E0FF1202A6900014EEF0A386
:10069500EFF0900035E0FCE4120272E4FBFA7920F9
:1006A5007841120141C004C005C006C0079000345E
:1006B500E0FCE4120272D003D002D001D000120097
:0C06C5004D1202A6900016EEF0A3EFF01C
:0106D1002206
:1011D600E4900079F0A3F090004EE0FF90003AE032
:1011E600FE6F6004EEF47032900039E0C39407405D
:1011F600297B017A00793A7D06120CA9AC06AD0767
:10120600900041E0FE900040E0FBEBB5050CECB52C
:0F1216000608121517E4900039F0E4900039F043
:0112250022A6
:1015170090003BE024FA600E2403700D90003AE03F
:0A152700F460060209531214512269
:03004300020E604A
:100E6000C0E0C0F0C083C082C0D075D000C000C058
:0D0E700001C002C003C004C005C006C007D9
:100E7D0012149DE59A30E02A539AFEAF9B9000081C
:100E8D00E0C394115012E0FE04F074262EF582E4B6
:100E9D003400F583EFF08005900008E4F090002514
:0C0EAD00E4F0E59A30E105539AFDC20123
:100EB900D007D006D005D004D003D002D001D0008D
:0B0EC900D0D0D082D083D0F0D0E03237
:03002300021014B4
:10101400C0E0C0F0C083C082C0D075D000C000C0A2
:1010240001C002C003C004C005C006C00712149D5D
:1010340030981BC298900039E0FF04F0743A2FF501
:1010440082E43400F583E599F0900025E4F03099CA
:1010540004C299C200D007D006D005D004D003D072
:1010640002D001D000D0D0D082D083D0F0D0E032F2
:1006D200900083ECF0A3EDF0EF24FE604D04600384
:1006E2000207A1438E80900083E0FEA3E0FBAA06EE
:1006F200E4F9F8FF7EC07DA8FC121270C3E49FFFEC
:10070200E49EFE74019DFDE49CFCE4FB7A01F9F891
:100712001212708F8C900083E0FEA3E0FBAA06E425
:10072200F9F8FF7EC07DA8FC8057538E7F9000832E
:10073200E0FEA3E0FBAA06E4F9F8FF7EC07DA8FC78
:10074200121270E47B0CFAF9F8121270C3E49FFFE4
:10075200E49EFE74019DFDE49CFCE4FB7A01F9F841
:100762001212708F8C900083E0FEA3E0FBAA06E4D5
:10077200F9F8FF7EC07DA8FC121270E47B0CFAF936
:10078200F8121270C3E49FFFE49EFE74019DFDE423
:100792009CFCE4FB7A01F9F8121270AF038F8A53C2
:0F07A20089F0D28CD2A9C2B853B8FC53B7FC224D
:10004600020312E86480F8E933E83360110460F0D3
:10005600ED33EC337009E8FCE9FDEAFEEBFF220420
:1000660060DED3EB9FEA9EE99DE8C2E78CF0C2F71B
:1000760095F0400CE8CCF8E9CDF9EACEFAEBCFFBE7
:100086001202DD85D0F05804700320D5B3E8047061
:10009600075002B2D502031C92D5EC0460F7E4CCFB
:1000A600C0E0C398F8603B94186008400DD0E0FBB0
:1000B6000202F4E4FBFAC9FC8028E830E406E4C94D
:1000C600FBE4CAFCE830E305E4C9CACBFCE8540704
:1000D6006010F8C3E913F9EA13FAEB13FBEC13FC0F
:1000E600D8F130F52FC3E49CFCEF9BFFEE9AFEEDB2
:1000F60099FDD0E0FBEF4E4D4C701222DB0302035C
:1001060019EC2CFCEF33FFEE33FEED33FDED30E75B
:10011600EB0202F4EF2BFFEE3AFEED39FDD0E0FBE9
:1001260050130BBB000302031CED13FDEE13FEEF91
:0801360013FFEC13FC0202F4BC
:10013E0002031CEC5D046005E8590470030203120F
:10014E001202DD580460F6EC4860F2EC7004FDFE1D
:10015E00FF22C860DB2481C85009C3986002500694
:10016E000203199850CAF582E9294B4A7005AB82F1
:10017E0002030875F0007C1A7880C3EF9BEE9AEDAF
:10018E0099400DC3EF9BFFEE9AFEED99FDE842F00C
:10019E00DC23ACF0D0E0FFD0E0FED0E0FDAB82205F
:1001AE00E7101BEB60BAEC2CFCEF33FFEE33FEEDE9
:1001BE0033FD0202F4E803F830E705C0F075F000F5
:1001CE00EF2FFFEE33FEED33FD40B830E7C280AACD
:1001DE0074F8CC6480CCC86480C8F58204604FC3C8
:1001EE00EB9FF5F0EA9E42F0E99D42F0E89C45F067
:1001FE00603C501DE5825FFFE582D313CB5BCBF4F1
:10020E002B5582FB50280ABA002409B90020088019
:10021E001DE5825BFBE582D313CF5FCFF4C3132FB3
:10022E005582FF50090EBE00050DBD00010CC3EB3B
:10023E009FF5F0EA9E42F0E99D42F0E89C45F060A1
:09024E0007CC4820E701B3EC22C3
:10025700ED33EC33600A047003BD8004ECB2E7FCB5
:010267002274
:1002680075F020800E75F010800575F0087D007E11
:10027800007F003392D530D503120499EC33401037
:10028800EF33FFEE33FEED33FDEC33FCD5F0ED221A
:0E029800E5F0247EA2D513CC92E7CDCEFF2256
:1002A600EDD2E7CD33EC3392D524814006E4FFFE50
:1002B600FDFC22FCE4CFCECDCC24E0501174FF80AF
:1002C600EDC3CC13CCCD13CDCE13CECF13CF04704C
:0702D600F030D5DE020499AF
:1002DD00E9D2E7C933E833F892D5EDD2E7CD33EC67
:0702ED0033FC5002B2D522E0
:1002F400EC30E7100FBF000C0EBE00080DBD00046B
:100304000BEB6014A2D5EB13FCED92E7FD2274FF16
:10031400FCFDFEFF22E480F8A2D574FF13FC7D806F
:03032400E480EF83
:03000000020DD41A
:0C0DD400787FE4F6D8FD758170020E1BDC
:10032700BB010689828A83E0225002E722BBFE02D4
:09033700E32289828A83E4932207
:10034000BB010CE58229F582E5833AF583E0225072
:1003500006E92582F8E622BBFE06E92582F8E222BC
:0D036000E58229F582E5833AF583E49322D6
:10036D00BB010689828A83F0225002F722BBFE016F
:02037D00F32269
:10037F00C2D5EC30E709B2D5E4C39DFDE49CFCEE99
:10038F0030E715B2D5E4C39FFFE49EFE120510C3FC
:10039F00E49DFDE49CFC800312051030D507C3E4F7
:0603AF009FFFE49EFE2208
:1003B500C5F0F8A3E028F0C5F0F8E58215827002D3
:0603C5001583E038F02270
:1003CB0075F008758200EF2FFFEE33FECD33CDCCE9
:1003DB0033CCC58233C5829BED9AEC99E58298406C
:1003EB000CF582EE9BFEED9AFDEC99FC0FD5F0D649
:1003FB00E4CEFBE4CDFAE4CCF9A88222B800C1B973
:10040B000059BA002DEC8BF084CFCECDFCE5F0CBB0
:10041B00F97818EF2FFFEE33FEED33FDEC33FCEBE9
:10042B0033FB10D703994004EB99FB0FD8E5E4F9A4
:10043B00FA227818EF2FFFEE33FEED33FDEC33FC91
:10044B00C933C910D7059BE99A4007EC9BFCE99A85
:10045B00F90FD8E0E4C9FAE4CCFB2275F010EF2FCA
:10046B00FFEE33FEED33FDCC33CCC833C810D707CA
:10047B009BEC9AE899400AED9BFDEC9AFCE899F805
:0E048B000FD5F0DAE4CDFBE4CCFAE4C8F92298
:10127000C2D5E830E70FB2D5E4C39BFBE49AFAE4A9
:1012800099F9E498F8EC30E717B2D51212A61204D7
:1012900007E4C39BFBE49AFAE499F9E498F8800325
:1012A00012040730D50DE4C39FFFE49EFEE49DFDCC
:0412B000E49CFC229C
:0E049900C3E49FFFE49EFEE49DFDE49CFC2274
:0C04A700ECF0A3EDF0A3EEF0A3EFF022C8
:1004B300A8828583F0D083D0821204CA1204CA12A0
:1004C30004CA1204CAE473E493A3C583C5F0C583C5
:1004D300C8C582C8F0A3C583C5F0C583C8C582C893
:0104E30022F6
:1004E400EF4E6012EF60010EEDBB010B89828A832F
:1004F400F0A3DFFCDEFA2289F05007F709DFFCA93C
:0C050400F022BBFEFCF309DFFCA9F02292
:100DE000020D41E493A3F8E493A34003F68001F2DB
:100DF00008DFF48029E493A3F85407240CC8C33314
:100E0000C4540F4420C8834004F456800146F6DFE2
:100E1000E4800B0102040810204080900F45E47E1E
:100E2000019360BCA3FF543F30E509541FFEE493D7
:100E3000A360010ECF54C025E060A840B8E493A39E
:100E4000FAE493A3F8E493A3C8C582C8CAC583CAC9
:100E5000F0A3C8C582C8CAC583CADFE9DEE780BE81
:010FB200003E
:10051000BC000BBE0029EF8DF084FFADF022E4CCCF
:10052000F875F008EF2FFFEE33FEEC33FCEE9DEC98
:10053000984005FCEE9DFE0FD5F0E9E4CEFD22EDDE
:10054000F8F5F0EE8420D21CFEADF075F008EF2F28
:10055000FFED33FD4007985006D5F0F222C398FD19
:050560000FD5F0EA22B6
:00000001FF
